:020000040800F2
:1000000000000220F5020008C57B0008C97B00083B
:10001000CD7B0008D17B0008D57B000800000000E4
:10002000000000000000000000000000D97B000874
:10003000DD7B000800000000E17B0008E57B000894
:1000400025040008250400082504000825040008EC
:1000500025040008250400082504000825040008DC
:1000600025040008250400082504000825040008CC
:1000700025040008250400082504000825040008BC
:1000800025040008250400082504000825040008AC
:10009000250400082504000825040008250400089C
:1000A00025040008F17B0008250400082504000849
:1000B0002504000825040008157C00082504000814
:1000C000250400082504000825040008250400086C
:1000D000250400082D7C00082504000825040008DC
:1000E000250400082504000825040008250400084C
:1000F000250400082504000825040008250400083C
:10010000250400082504000825040008250400082B
:100110005D7C00088D7C0008BD7C0008D57C000853
:10012000250400082504000825040008250400080B
:10013000250400080000000000000000250400085D
:1001400025040008250400082504000825040008EB
:1001500025040008250400082504000825040008DB
:1001600025040008250400082504000825040008CB
:1001700025040008250400082504000800000000EC
:10018000000000002504000800000000000000003E
:1001900025040008000000000000000025040008FD
:1001A000000000000000000000000000250400081E
:1001B000250400082504000825040008250400087B
:1001C0002504000800B583B005F024F8384B394AFF
:1001D0001360394A136039490CE00A684B6801F131
:1001E0000C04886803E011681960043304329842F3
:1001F000F9D82146324B9942EFD32E4B1A68314B36
:100200009A4204D12C4B1A682F4B9A4200D0FEE739
:10021000274B2E4A13602E4A13602E4B0AE01946D4
:1002200051F8082B5B6802E00020106004329A420B
:10023000FAD30B46284A9342F1D3244B1B6813B9D7
:10024000234B1B6803B1FEE705F0E6F8694601A8F9
:1002500004F08AFF214C224B1C1BA410002504E053
:100260001E4B53F8253098470135AC42F8DC1D4C45
:100270001D4B1C1BA410002504E01A4B53F825301D
:1002800098470135AC42F8DC0099019806F08EFFE2
:100290000546164C164B1C1BA41004E0013C134BE6
:1002A00053F824309847002CF8DC284604F038FF37
:1002B000BABADECA00000020AC03002028040008FF
:1002C000400400087856341232547698B003002067
:1002D000701F00204004000850040008500400086B
:1002E000500400085004000850040008500400089E
:1002F0005004000808B5FFF765FF00BF00BEFEE729
:100300001EF0040F0CBFEFF30880EFF30980714675
:10031000414A10472DE9F04182B004468846134B0C
:100320005E6B9F6B9D6A1B6B13F0020F0DD00F4B22
:10033000DB6A002B09DA4BF6AB6104F0EFFF20B16A
:100340004FF00042094BDA620CE0094804F014FF58
:10035000CDF800803B4632462946204604F066FF31
:1003600000BEFEE702B0BDE8F08100BF00ED00E096
:10037000ACC9000800BEFEE71EF0040F0CBFEFF38F
:100380000880EFF309807146244A10472DE9F041B7
:1003900082B004468846084B5E6B9F6B9D6A074897
:1003A00004F0EAFECDF800803B463246294620465E
:1003B00004F03CFF00BEFEE700ED00E0BCC9000811
:1003C0001EF0040F0CBFEFF30880EFF309807146B5
:1003D000134A10472DE9F04182B004468846084B85
:1003E0005E6B9F6B9D6A074804F0C6FECDF80080E7
:1003F0003B4632462946204604F018FF00BEFEE781
:1004000000ED00E0C8C9000800BEFEE700BEFEE740
:1004100000BEFEE770470000150300088D030008CA
:08042000D503000800BEFEE751
:100428000CD0000800000020B00300200CD0000809
:100438000000001000000010B0030020741F00200E
:0804480000000010000000108C
:1004500010B5044600F044FE064BA3FB00308009B3
:1004600000F0B6F8002221464FF0FF3000F058F8B7
:10047000002010BDD34D621008B50B4B1A6842F432
:1004800000721A601A6842F480621A601A6842F4B4
:1004900080721A60032000F025F80020FFF7D8FFD3
:1004A00007F090F8002008BD003C0240024A1368A3
:1004B00001331360704700BF54040020014B1868DB
:1004C000704700BF5404002010B582B00190FFF7C0
:1004D000F5FF0446FFF7F2FF001B019B9842F9D39A
:1004E00002B010BD10B50446C31E042B03D9A421CD
:1004F000094807F065F8094AD36823F4E0631B0450
:100500001B0C240204F4E064234343F0BF6343F470
:100510000033D36010BD00BFC4C6000800ED00E08A
:1005200070B504460E4615460F2A03D9BC211A4859
:1005300007F046F80F2E03D9BD21174807F040F801
:10054000164BDA68C2F30222C2F10701042928BF60
:100550000421131D062B01D9033A00E000220123D8
:1005600003FA01F101393140914003FA02F2013AF4
:100570002A400A43002C06DA04F00F041201D2B21A
:10058000074B1A5570BD1201D2B204F1604404F554
:10059000614484F8002370BDC4C6000800ED00E08B
:1005A00014ED00E010B5041E03DAD021064807F070
:1005B00007F8620904F01F04012303FA04F4034B53
:1005C00043F8224010BD00BFC4C6000800E100E0AF
:1005D0000138B0F1807F0AD2064B5860F021064AFC
:1005E00082F823100020986007221A6070470120CB
:1005F000704700BF10E000E000ED00E010B50446D9
:10060000042805D020B140F2B311084806F0D8FF05
:10061000042C05D1064A136843F00403136010BD8F
:10062000034A136823F00403136010BDC4C6000816
:1006300010E000E0704700BF08B5FFF7FBFF08BD02
:100640002DE9F04782B080460F46AB4B98421FD051
:1006500003F5806398421BD003F58063984217D05E
:1006600003F58063984213D003F5806398420FD05E
:1006700003F5806398420BD003F58063984207D05E
:1006800003F58063984203D0C5219C4806F098FF8B
:100690003B881BB9C621994806F092FF7B68012B65
:1006A00022D9112B20D0022B1ED0122B1CD0944A01
:1006B000934219D002F58012934215D002F58012B0
:1006C000934211D0A2F5F81293420DD002F5801298
:1006D000934209D002F58012934205D0032B03D038
:1006E000C721864806F06CFFBB68022B03D9C821DE
:1006F000824806F065FF00253EE10124AC403E68DB
:100700002640B44240F037817B68022B01D0122B87
:1007100069D13B69002B56D0092B54D0002B52D005
:10072000002B50D0002B4ED0002B4CD0012B4AD0A8
:1007300049D0022B47D046D045D0032B43D0042BC1
:1007400041D040D03FD0052B3DD03CD0092B3AD0F2
:10075000062B38D0092B36D0072B34D033D032D0EB
:10076000082B30D02FD02ED0092B2CD02BD00A2BF9
:1007700029D028D00B2B26D00C2B24D023D00D2B06
:1007800021D00F2B1FD0052B1DD00C2B1BD0062BDF
:1007900019D0032B17D0042B15D0052B13D0062B03
:1007A00011D010D0072B0ED00DD00CD00BD0082BB1
:1007B00009D008D0092B06D00A2B04D003D0D921A8
:1007C0004E4806F0FDFEEA08083258F8220005F00F
:1007D000070399000F238B4020EA03003B698B40FD
:1007E000034348F82230D8F800304FEA450A4FF06A
:1007F000030909FA0AF96FEA090903EA09027B68A1
:1008000003F0030303FA0AF31343C8F800307B68CC
:100810005A1E012A03D9112B01D0122B1BD1FB68C0
:10082000032B03D9EC21354806F0CAFED8F808306E
:1008300009EA0302FB6803FA0AF31343C8F8083015
:10084000D8F8043023EA04047B68C3F30013AB40F8
:100850001C43C8F80440D8F80C3009EA0309BB6807
:1008600003FA0AF349EA0303C8F80C307B6813F073
:10087000805F00F0808000230193224B5A6C42F489
:1008800080425A645B6C03F480430193019BA90886
:100890008A1C1D4B53F8220005F003039B000F2216
:1008A0009A4020EA0200144A904519D002F580626D
:1008B000904517D002F58062904515D002F5806210
:1008C000904513D002F58062904511D002F5806208
:1008D00090450FD002F58062904517D1062216E0B0
:1008E000002214E0012212E0022210E003220EE0B6
:1008F00004220CE005220AE000000240F8C60008CD
:10090000000011100038024000380140082202FAAD
:1009100003F3034302311B4A42F821301A4B1A6891
:10092000F34302EA0301786810F4803F01D046EAFD
:100930000201154A1160526803EA0201786810F456
:10094000003F01D046EA02010F4A5160926803EA73
:100950000201786810F4801F01D046EA02010A4AB9
:100960009160D2681340796811F4001F01D046EA03
:100970000203054AD36001350F2D7FF6BEAE02B0EB
:10098000BDE8F08700380140003C014070B50646E4
:1009900015460C4621B940F2B111084806F010FE88
:1009A000012D04D94FF4D971044806F009FE0DB1A8
:1009B000B46170BD2404B46170BD00BFF8C6000806
:1009C00010B582B000230193244B1A6C42F0805280
:1009D0001A641B6C03F080530193019B4FF4803326
:1009E00093FAA3F3B3FA83F303F1845303F560336B
:1009F0009B0001221A60FFF761FD044605E0FFF746
:100A00005DFD001BB0F57A7F22D8154B5B6813F4AF
:100A1000803FF4D04FF4003393FAA3F3B3FA83F397
:100A200003F1845303F560339B0001221A60FFF742
:100A300045FD044605E0FFF741FD001BB0F57A7F58
:100A400008D8074B5B6813F4003FF4D0002002E0A5
:100A5000032000E0032002B010BD00BF00380240B8
:100A60000070004030B583B0044603680F2B03D9F3
:100A7000F6219E4806F0A4FD236813F0010F45D02F
:100A80006368012B05D9052B03D0FB21974806F09D
:100A900097FD974B9B6803F00C03042B0AD0944BF3
:100AA0009B6803F00C03082B0CD1914B5B6813F48B
:100AB000800F07D08E4B1B6813F4003F26D063686D
:100AC00023BBD2E122798B4B1A7063687BB1FFF7AD
:100AD000F5FC054605E0FFF7F1FC401B642800F239
:100AE000C681834B1B6813F4003FF4D00EE0FFF780
:100AF000E5FC054605E0FFF7E1FC401B642800F239
:100B0000B8817B4B1B6813F4003FF4D1236813F0CA
:100B1000020F6ED0E368012B04D94FF4977173482C
:100B200006F04EFD23691F2B04D940F22F116F48A8
:100B300006F046FD6E4B9B6813F00C0F0AD06C4B11
:100B40009B6803F00C03082B1FD1694B5B6813F4FF
:100B5000800F1AD1664B1B6813F0020F07D0E368B1
:100B6000012B04D0644804F007FB01209AE160489F
:100B7000036823F0F8012369F82292FAA2F2B2FA8C
:100B800082F293400B43036033E0E368FBB1012240
:100B90005A4B1A60FFF792FC054605E0FFF78EFC02
:100BA000401B022800F26781514B1B6813F0020FB3
:100BB000F4D04F48036823F0F8012369F82292FA31
:100BC000A2F2B2FA82F293400B43036011E00022DA
:100BD0004A4B1A60FFF772FC054605E0FFF76EFC12
:100BE000401B022800F24981414B1B6813F0020FA1
:100BF000F4D1236813F0080F2ED06369012B04D9B8
:100C00004FF4B871394806F0DBFC636993B10122F7
:100C10003B4B1A60FFF752FC054605E0FFF74EFC20
:100C2000401B022800F22B81314B5B6F13F0020F47
:100C3000F4D011E00022324B1A60FFF73FFC05466A
:100C400005E0FFF73BFC401B022800F21A81284B0D
:100C50005B6F13F0020FF4D1236813F0040F62D01E
:100C6000A368012B06D9052B04D04FF4CD711F4882
:100C700006F0A6FC002301931D4B1A6C42F0805233
:100C80001A641B6C03F080530193019B1D4A136887
:100C900043F480731360FFF711FC054605E0FFF78E
:100CA0000DFC401B022800F2EE80164B1B6813F46B
:100CB000807FF4D0227A144B1A70A3688BB1FFF7AF
:100CC000FDFB054607E0FFF7F9FB401B41F28833C7
:100CD000984200F2DA80064B1B6F13F0020FF2D03D
:100CE00021E0FFF7EBFB054618E000BF38C700081E
:100CF000003802400238024060CC00080000474241
:100D0000800E47420070004070380240FFF7D6FB6B
:100D1000401B41F28833984200F2B980624B1B6F4E
:100D200013F0020FF2D1A369022B04D940F2CF11C4
:100D30005E4806F045FCA369002B00F0AA805A4AE1
:100D4000926802F00C02082A00F0A580022B79D1EB
:100D5000E3693BB1B3F5800F04D04FF4EC71534815
:100D600006F02EFC236A3F2B04D940F2D9114F48DC
:100D700006F026FC636A323BB3F5BF7F04D94FF41B
:100D8000ED714A4806F01CFCA36A022B0AD0042B22
:100D900008D0062B06D0082B04D040F2DB114348C4
:100DA00006F00EFCE36A043B0B2B04D94FF4EE7102
:100DB0003E4806F005FC00223D4B1A60FFF77EFB23
:100DC000054604E0FFF77AFB401B022865D8364B46
:100DD0001B6813F0007FF5D1E169236A1943636A48
:100DE00047F6C07292FAA2F2B2FA82F29340194325
:100DF000A36A5B085A1E4FF4403393FAA3F3B3FA85
:100E000083F302FA03F30B43E26A4FF0706191FA45
:100E1000A1F1B1FA81F18A401343234A53600122C0
:100E2000234B1A60FFF74AFB044604E0FFF746FB3A
:100E3000001B022833D81C4B1B6813F0007FF5D031
:100E400000202FE000221A4B1A60FFF737FB044600
:100E500004E0FFF733FB001B022822D8124B1B686B
:100E600013F0007FF5D100201CE001201AE00320E0
:100E700018E0032016E0032014E0032012E0032012
:100E800010E003200EE003200CE003200AE0032022
:100E900008E0002006E0002004E0032002E0032038
:100EA00000E0032003B030BD0038024038C700081E
:100EB0006000474270B504460D460368013B0E2BA7
:100EC00004D940F23B21834806F07AFB0F2D04D968
:100ED0004FF40F717F4806F073FB7F4B1B6803F0E4
:100EE0000F039D4208D9EBB27B4A1370136803F0DD
:100EF0000F039D4240F0DB80236813F0020F1DD0EA
:100F0000A368A3B1802B12D0902B10D0A02B0ED0B1
:100F1000B02B0CD0C02B0AD0D02B08D0E02B06D0A1
:100F2000F02B04D040F253216A4806F049FB6B498C
:100F30008B6823F0F002A36813438B60236813F0DF
:100F4000010F64D06368032B04D940F25A21614831
:100F500006F036FB6268012A05D1604B1B6813F46A
:100F6000003F0FD1A5E0931E012B05D85B4B1B68FA
:100F700013F0007F06D19EE0584B1B6813F0020F60
:100F800000F09B8055498B6823F0030313438B606B
:100F9000FFF794FA06466368012B0FD107E0FFF7CD
:100FA0008DFA801B41F28833984200F288804B4BC7
:100FB0009B6803F00C03042BF1D128E0022B0ED127
:100FC00006E0FFF77BFA801B41F28833984278D81D
:100FD000424B9B6803F00C03082BF2D117E0032B64
:100FE00010D13E4B9B68FFF769FA801B41F28833B2
:100FF0009842F6D967E0FFF761FA801B41F2883327
:10100000984262D8354B9B6813F00C0FF3D1324BEA
:101010001B6803F00F039D4207D2EAB22E4B1A70F1
:101020001B6803F00F039D4251D1236813F0040F96
:1010300019D0E36883B1B3F5805F0DD0B3F5A05F3D
:101040000AD0B3F5C05F07D0B3F5E05F04D04FF42A
:101050002E71204806F0B4FA20498B6823F4E05240
:10106000E36813438B60236813F0080F1AD02369D9
:1010700083B1B3F5805F0DD0B3F5A05F0AD0B3F5AF
:10108000C05F07D0B3F5E05F04D040F2BF21114844
:1010900006F096FA114A936823F46043216943EA03
:1010A000C10393600020FFF7D3F9002070BD012039
:1010B00070BD012070BD012070BD012070BD0320F6
:1010C00070BD032070BD032070BD032070BD0120E2
:1010D00070BD00BF38C70008003C02400038024025
:1010E00008B500F071FC084B9B6803F0F002F02398
:1010F00093FAA3F3B3FA83F322FA03F3034AD35C1C
:10110000D840034B186008BD0038024028C70008CB
:101110000C00002008B5FFF7E3FF084B9B6803F4C1
:10112000E0524FF4E05393FAA3F3B3FA83F322FAB5
:1011300003F3034AD35CD84008BD00BF0038024027
:1011400028C7000808B5FFF7CBFF084B9B6803F4DE
:1011500060424FF4604393FAA3F3B3FA83F322FAA5
:1011600003F3034AD35CD84008BD00BF00380240F7
:1011700028C70008F0B583B004460368013B40F679
:10118000FE72934203D9CA21744806F019FA236803
:1011900013F0010F1BD0A36B63B1B3F1007F09D033
:1011A000B3F1806F06D0B3F1C06F03D0D0216B488C
:1011B00006F006FA6A49D1F88C3023F0C062A36BBE
:1011C0001343C1F88C30A36B1BB1002702E000274A
:1011D00000E00127236813F0020F1AD0E36B63B11C
:1011E000B3F1006F09D0B3F1805F06D0B3F1C05FF7
:1011F00003D0E021594806F0E3F95949D1F88C3081
:1012000023F0C052E36B1343C1F88C30E36B03B996
:101210000127236813F0040F1FD0236B63B1B3F5CC
:10122000801F09D0B3F5001F06D0B3F5401F03D0CF
:10123000F0214A4806F0C4F94949D1F88C3023F42A
:101240004012236B1343C1F88C30236BB3F5801F1E
:1012500000D101271BB1002502E0002500E0012597
:10126000236813F0080F1FD0636B6BB1B3F5800FC9
:101270000AD0B3F5000F07D0B3F5400F04D040F209
:101280000511364806F09CF93549D1F88C3023F425
:101290004002636B1343C1F88C30636BB3F5800F6E
:1012A00000D1012703B90125236813F0200F69D06D
:1012B000002301932A4B1A6C42F080521A641B6C73
:1012C00003F080530193019B264A136843F4807313
:1012D0001360FFF7F3F8064605E0FFF7EFF8801B11
:1012E000022800F25B831F4B1B6813F4807FF4D04D
:1012F0001B4B1A6F236C534013F4407F42D0184AA3
:10130000136F23F44070184901260E6000260E600A
:10131000106713F0020F10D0FFF7D0F8064607E071
:10132000FFF7CCF8801B41F28833984200F23883F3
:101330000B4B1B6F13F0020FF2D0236C03F44072BF
:10134000B2F5407F12D106498A6822F4F81223F0E0
:10135000704323F4407313438B600CE068C70008AC
:101360000038024000700040400E4742504A9368E7
:1013700023F4F81393604E4A116F236CC3F30B03ED
:101380000B431367236813F0100F03D094F8582011
:10139000484B1A60236813F0800F15D0E36C53B1EB
:1013A000B3F5800F07D0B3F5000F04D040F255110C
:1013B000414806F005F93E49D1F8943023F4400243
:1013C000E36C1343C1F89430236813F0400F12D03C
:1013D000A36C3BB1B3F1806F04D04FF4B0713648C9
:1013E00006F0EEF83249D1F8943023F08062A36C15
:1013F0001343C1F89430236813F4807F17D0636DD2
:101400003BB1B3F1006F04D040F26B112A4806F0F3
:10141000D7F82749D1F8943023F00062636D134365
:10142000C1F89430636DB3F1006F00D101252368DA
:1014300013F4007F12D0636C3BB1B3F1805F04D032
:101440004FF4BE711C4806F0BBF81949D1F894302E
:1014500023F08052636C1343C1F89430236813F473
:10146000806F17D0236D3BB1B3F1005F04D040F221
:101470008711114806F0A4F80D49D1F8943023F0F3
:101480000052236D1343C1F89430236DB3F1005F14
:1014900000D1012727B92368B3F5006F40F0A4817C
:1014A0000022064B1A60FFF709F806460EE000BF5F
:1014B00000380240E011474268C700086800474210
:1014C000FEF7FCFF801B022800F26C82CB4B1B68EE
:1014D00013F0006FF4D163683F2B04D940F2A711D9
:1014E000C74806F06DF8A368323BB3F5BF7F04D957
:1014F0004FF4D471C24806F063F8236813F0010F6B
:1015000001D0A26B2AB113F0020F4AD0E36B002B7B
:1015100047D16369023B052B04D940F2AF11B848AB
:1015200006F04EF8B54ED6F8842002F440334FF45E
:10153000403E9EFAAEF2B2FA82F223FA02F2013291
:101540005200D6F8841001F070614FF0706090FA8C
:10155000A0F3B3FA83F3D9406368A76847F6C07C69
:101560009CFAACFCBCFA8CFC07FA0CF71F4352083F
:10157000013A9EFAAEFEBEFA8EFE02FA0EF33B432D
:1015800090FAA0F0B0FA80F081400B4362694FF00E
:10159000E04191FAA1F1B1FA81F18A401343C6F812
:1015A0008430236813F0040F03D0226BB2F5801F40
:1015B00006D013F0080F5ED0636BB3F5800F5AD1DD
:1015C0002369023B0D2B04D940F2BF118C4805F072
:1015D000F7FFA36A013B1F2B04D940F2C1118848D1
:1015E00005F0EEFF854ED6F8843003F440334FF417
:1015F000403E9EFAAEF2B2FA82F223FA02F20132D1
:101600005200D6F8841001F0E0414FF0E04090FA2B
:10161000A0F3B3FA83F3D9406768A36847F6C07CA8
:101620009CFAACFCBCFA8CFC03FA0CF31F43520886
:10163000013A9EFAAEF3B3FA83F302FA03F33B43A3
:1016400022694FF0706797FAA7F7B7FA87F7BA40A1
:10165000134390FAA0F2B2FA82F201FA02F21343B3
:10166000C6F88430D6F88C3023F01F02A36A013B01
:101670001343C6F88C30236813F4806F52D0236D67
:10168000B3F1005F4ED1E368022B0AD0042B08D0DF
:10169000062B06D0082B04D04FF4EA71584805F009
:1016A0008FFF564ED6F8843003F440334FF4403762
:1016B00097FAA7F2B2FA82F2D34001335B00D6F870
:1016C000840000F0E0404FF0E04E9EFAAEF2B2FA35
:1016D00082F2D0406168A26847F6C07C9CFAACFCFC
:1016E000BCFA8CFC02FA0CF241EA020CE2685208E5
:1016F000511E97FAA7F2B2FA82F201FA02F24CEA0C
:1017000002024FF0706191FAA1F1B1FA81F18B40C0
:101710001A439EFAAEF3B3FA83F300FA03F31343CA
:10172000C6F88430236813F4006F4BD0E368022BB3
:101730000AD0042B08D0062B06D0082B04D04FF477
:10174000F1712F4805F03CFF6369023B052B04D97A
:1017500040F2E3112A4805F033FF2369023B0D2BC9
:1017600004D94FF4F271264805F02AFF6368A26895
:1017700047F6C07191FAA1F1B1FA81F18A4043EACA
:101780000201E3685B085A1E4FF4403393FAA3F357
:10179000B3FA83F302FA03F30B4322694FF070614B
:1017A00091FAA1F1B1FA81F18A40134362694FF0D5
:1017B000E04191FAA1F1B1FA81F18A4013430F4A55
:1017C000C2F8843001220F4B1A60FEF777FE0646FE
:1017D00005E0FEF773FE801B022800F2E580074B50
:1017E0001B6813F0006FF4D0002D00F0DF800022A2
:1017F000054B1A60FEF762FE05460DE00038024018
:1018000068C700086800474270004742FEF756FE6E
:10181000401B022800F2CC80684B1B6813F0005F6D
:10182000F4D1A3693F2B04D940F20E21644805F09E
:10183000C7FEE369323BB3F5BF7F04D940F20F2105
:101840005F4805F0BDFE236813F0040F01D0226B42
:101850002AB113F0080F4CD0636B002B49D1636A97
:10186000023B0D2B04D940F21621554805F0A8FE85
:10187000E36A013B1F2B04D94FF40671504805F071
:101880009FFE4E48D0F8883003F440334FF4403187
:1018900091FAA1F2B2FA82F223FA02F20132520074
:1018A000A669E36947F6C07595FAA5F5B5FA85F519
:1018B000AB4046EA03055208013A91FAA1F3B3FAA4
:1018C00083F302FA03F32B43626A4FF0706191FADB
:1018D000A1F1B1FA81F18A401343C0F88830D0F801
:1018E0008C3023F4F853E26A013A43EA0223C0F849
:1018F0008C30236813F4807F3DD0636DB3F1006FAB
:1019000039D1236A022B0AD0042B08D0062B06D02B
:10191000082B04D040F22A21294805F051FE274D1A
:10192000D5F8882002F070624FF0706191FAA1F34F
:10193000B3FA83F322FA03F0A669E36947F6C072AB
:1019400092FAA2F2B2FA82F293401E43226A52083D
:10195000013A4FF4403393FAA3F3B3FA83F302FA54
:1019600003F3334391FAA1F2B2FA82F200FA02F2DF
:101970001343C5F888300122124B1A60FEF79EFD12
:10198000044604E0FEF79AFD001B022812D80B4B18
:101990001B6813F0005FF5D000200CE003200AE084
:1019A000032008E0032006E0032004E0002002E01A
:1019B000032000E0032003B0F0BD00BF0038024068
:1019C00068C700087000474210B4404B9B6803F0A2
:1019D0000C03082B02D00C2B3BD073E03B4B586818
:1019E00000F03F005B6813F4800F10D0384BB3FB5E
:1019F000F0F0364B5A6847F6C0710A4091FAA1F3ED
:101A0000B3FA83F322FA03F303FB00F310E0304B45
:101A1000B3FBF0F02D4B5A6847F6C07402EA04019C
:101A200094FAA4F2B2FA82F221FA02F202FB00F373
:101A3000264A506800F440324FF4403090FAA0F04B
:101A4000B0FA80F022FA00F001304000B3FBF0F071
:101A500039E01E4B586800F03F005B6813F4800FBC
:101A600010D01B4BB3FBF0F0184B5A6847F6C0710F
:101A70000A4091FAA1F3B3FA83F322FA03F303FBCA
:101A800000F310E0124BB3FBF0F0104B5A6847F62E
:101A9000C07402EA040194FAA4F2B2FA82F221FAC2
:101AA00002F202FB00F3094A506800F0E0424FF0F6
:101AB000E04090FAA0F0B0FA80F022FA00F0B3FB18
:101AC000F0F000E0024810BC704700BF0038024050
:101AD0000024F40001684B6BC3F3C0134FF4803251
:101AE00003E04B6BC3F3C013013A0AB1002BF8D0EB
:101AF00022B140F2FF538B630020704703207047F0
:101B000001684B6B13F0450F14BF012200224FF404
:101B1000803306E04A6B12F0450F14BF0122002209
:101B2000013B0AB9002BF5D14A6B02F0040203B164
:101B30001AB104238B63032070474B6B13F0400FE3
:101B400003D040238B63002070472920704700BFDB
:101B500003685A6B12F0450FFAD05A6B12F0040F5B
:101B600003D004229A630320704740F2FF529A6325
:101B70000020704703685A6B12F0450FFAD05A6B79
:101B800012F0040F03D004229A63032070475A6BAB
:101B900012F0010F02D001209863704740F2FF520B
:101BA0009A630020704700BF38B503685A6B12F083
:101BB000450FFAD05A6B12F0040F03D004229A6337
:101BC000032038BD5A6B12F0010F02D00120986338
:101BD00038BD0D460446184603F024FAA84243D106
:101BE000236840F2FF529A63002003F01FFA334B40
:101BF0000340DBB300283BDB10F0804F3AD110F0FC
:101C0000005F39D110F0805F38D110F0006F37D10C
:101C100010F0806F36D110F0807F35D110F4000FB6
:101C200034D110F4800F33D110F4001F32D110F4EE
:101C3000801F31D110F4002F30D110F4802F2FD11C
:101C400010F4003F2ED110F4803F2DD110F4004F3E
:101C50002CD110F4804F2BD110F4005F2AD110F05A
:101C6000080F29D01A2038BD102038BD002038BDFB
:101C70001C2038BD092038BD0A2038BD0B2038BDD6
:101C80000C2038BD0D2038BD0E2038BD0F2038BDCA
:101C9000102038BD112038BD122038BD132038BDAA
:101CA000142038BD152038BD162038BD172038BD8A
:101CB000182038BD192038BD002038BD08E0FFFDD0
:101CC0002DE9F04186B0044600258DF803505B4EA7
:101CD0003560006803F05CF90120FEF7F5FB012395
:101CE000336001950295039504954FF48063059345
:101CF00001A9206803F054F92046FFF7EBFE8DF8A8
:101D000003009DF8033013F0FF0F03D09DF803008C
:101D1000C0B28FE04FF4D5730193082302934023A0
:101D2000039301A9206803F03BF92046FFF7E8FE82
:101D30008DF803009DF8033013F0FF0F04D1012349
:101D400023624FF0804801E04FF000080023019328
:101D50003725029501A9206803F022F9294620467B
:101D6000FFF722FF8DF803009DF8033013F0FF0FFB
:101D700045D05CE00023019337260296402203926F
:101D800004934FF48063059301A9206803F008F9D8
:101D900031462046FFF708FF8DF803009DF8033019
:101DA00013F0FF0F03D09DF80300C0B242E048F0EB
:101DB000004343F4801301932923029340230393A8
:101DC000002304934FF48063059301A9206803F076
:101DD000E7F82046FFF7BCFE8DF803009DF80330BE
:101DE00013F0FF0F03D09DF80300C0B222E00020E3
:101DF00003F01CF9002800DA0127013502E0002772
:101E00003D4638461FB94FF6FE739D42B2D94FF694
:101E1000FE739D4206D91B238DF803309DF8030005
:101E2000C0B207E010F0804F01D0022323629DF87A
:101E30000300C0B206B0BDE8F08100BFA08025421B
:101E400030B587B0044601920725029540230393DD
:101E5000002304934FF48063059301A9006803F005
:101E60009FF829462046FFF79FFE07B030BD00BF10
:101E7000F1B170B586B00E460446436A1B04019367
:101E80000D25029540230393002304934FF48063B0
:101E9000059301A9006803F083F829462046FFF75F
:101EA00083FE044630B903F0C1F83060204601E0FB
:101EB0002620704706B070BD00B583B002A900238C
:101EC00041F8043DFFF7D4FF18B90198C0F343204F
:101ED00000E0FF2003B05DF804FB00BF70B50368AD
:101EE0005C6B14F0450FFAD05C6B14F0040F03D058
:101EF00004229A63032070BD5C6B14F0010F02D0C2
:101F00000120986370BD16460D460446184603F03E
:101F100089F8A84218D1236840F2FF529A63002042
:101F200003F084F810F4604F03D1000C30800020DF
:101F300070BD10F4005F09D110F4804F08D110F487
:101F4000004F07D00F2070BD102070BD132070BD52
:101F5000102070BD002070BD30B587B004460D461E
:101F600000220092436A1B0401930D230293402335
:101F7000039304924FF48063059301A9006803F072
:101F80000FF82068436B13F0450FFAD0436B13F042
:101F9000040F03D004238363032092E0436B13F008
:101FA000010F03D00123836318468AE003F03AF857
:101FB0000D285DD1236840F2FF529A63002003F0A0
:101FC00035F80090009BC3F343232B70009A3E4BDF
:101FD0001340002B4ED0009B002B4DDB009B13F0D9
:101FE000804F4BD1009B13F0005F49D1009B13F051
:101FF000805F47D1009B13F0006F45D1009B13F029
:10200000806F43D1009B13F0807F41D1009B13F47C
:10201000000F3FD1009B13F4800F3DD1009B13F4C0
:10202000001F3BD1009B13F4801F39D1009B13F498
:10203000002F37D1009B13F4802F35D1009B13F470
:10204000003F33D1009B13F4803F31D1009B13F448
:10205000004F2FD1009B13F4804F2DD1009B13F420
:10206000005F2BD1009B13F0080F29D01A2028E025
:10207000102026E0002024E01C2022E0092020E09F
:102080000A201EE00B201CE00C201AE00D2018E0B6
:102090000E2016E00F2014E0102012E0112010E0B6
:1020A00012200EE013200CE014200AE0152008E0B6
:1020B000162006E0172004E0182002E0192000E0B6
:1020C000002007B030BD00BF08E0FFFD30B587B08D
:1020D00004460123ADF80230006802F05DFF0028DD
:1020E00064D0236A042B23D000230193022202929E
:1020F000C022039204934FF48063059301A92068E2
:1021000002F04EFF2046FFF735FD054600284FD16F
:1021100002F08CFFA063042002F088FFE063082037
:1021200002F084FF20640C2002F080FF606400E075
:102130000025236A012B03D9062B01D0022B0FD1D6
:10214000032502954023039301A9206802F028FF8C
:102150000DF1020229462046FFF7C0FE054640BBAE
:10216000236A042B26D0BDF8023063621B0401935E
:1021700009230293C023039301A9206802F010FFF2
:102180002046FFF7F7FC0546B0B902F04FFFA0620A
:10219000042002F04BFFE062082002F047FF2063BA
:1021A0000C2002F043FF6063284605E0252003E091
:1021B00002E001E02846FFE707B030BDF0B58FB080
:1021C00004460E460023019302930822099210252B
:1021D0000A9540220B920C934FF480630D9309A94A
:1021E000006802F0DDFE29462046FFF7DDFC0028EE
:1021F00076D1636AAB40099337250A9509A920680F
:1022000002F0CEFE29462046FFF7CEFC002868D11A
:102210004FF0FF33039308230493302305930223E5
:102220000693002507950123089303A9206802F06F
:1022300019FF099533250A9509A9206802F0B0FE17
:1022400029462046FFF7B0FC054600284AD1002762
:1022500009E0436B13F4001F05D002F08FFE01ABC1
:1022600043F8270001372068426B40F22A431A42A4
:10227000EFD0436B13F0080F03D0082383630420CF
:1022800030E0436B13F0020F03D002238363184640
:1022900028E0436B13F0200F03D020238363062034
:1022A00020E040F2FF53836301990B0203F47F03A4
:1022B00043EA01630A0A02F47F42134343EA1163CB
:1022C000736002990B0203F47F0343EA01630A0A75
:1022D00002F47F42134343EA11633360284601E06E
:1022E00000E0FFE70FB0F0BD30B589B00446002034
:1022F0000190029002F09AFE10F0007F2AD101A90D
:102300002046FFF75BFF38BB029B13F4802F24D0DD
:10231000636A1B0403933725049540230593002328
:1023200006934FF48063079303A9206802F038FEF8
:1023300029462046FFF738FC88B902230393062577
:10234000049503A9206802F02BFE29462046FFF7DA
:102350002BFC04E00E2002E001E02520FFE709B09D
:1023600030BD00BF30B589B0044600200190029016
:1023700002F05CFE10F0007F2AD101A92046FFF791
:102380001DFF38BB029B13F4803F24D0636A1B04FB
:1023900003933725049540230593002306934FF4B8
:1023A0008063079303A9206802F0FAFD29462046BE
:1023B000FFF7FAFB88B9002303930625049503A9C8
:1023C000206802F0EDFD29462046FFF7EDFB04E012
:1023D0000E2002E001E02520FFE709B030BD00BF7C
:1023E0002DE9F003034690F8202081F85620828CD6
:1023F000A1F85420826A900F0870C2F3836048707D
:10240000C2F301628A7093F82A20CA7093F82920D7
:102410000A7193F828204A7193F82F201201CA807C
:10242000D88DCA8892B2C0F303142243CA8000F048
:102430000F00087293F82D20D0094872C2F3801063
:102440008872C2F34010C872C2F3001008730020F3
:102450004873186A012840D8920202F440620A6167
:10246000DA6A0869920002F47F7202430A611A6B09
:10247000086940EA92700861C2F3C2600875C2F34D
:1024800002624A755A8ED0B244098C75C0F382003C
:10249000C875520002F006020A7693F83120087ED1
:1024A00040EAD21008760C69651C00208D64C8646F
:1024B0000C7E0234012707FA04F4A4FB0545C1E9A8
:1024C00012450E7AF6B207FA06F60E65A6FB0489E7
:1024D00006FB0599C1E9128924E0022821D1DA6AB4
:1024E000120402F47C120A6193F833000A6942EA8A
:1024F00000220A6193F832000A6902430A6193F8E4
:1025000031200C690025013445F10005E80440EA5A
:102510005430E4048C64C8644FF4007008650020F3
:1025200000E02920C2F380144C76520002F07E02B3
:102530008A761A6B8D7EC2F3C0142C438C7602F01F
:102540007F02CA765A6B140ED50F0D77C2F3417510
:102550004D77C2F382628A77A20002F00C02CA773A
:10256000DA8ED4B2CD7F45EA9415CD77C4F340140A
:1025700081F82040002481F8214002F0010281F816
:1025800022205C6B240AE2B2D50981F82350C2F301
:10259000801581F82450C2F3401581F82550C2F30C
:1025A000001581F82650C2F3810281F8272004F03B
:1025B000030481F828405A6BC2F3460281F82920AF
:1025C000012481F82A4093F83B2081F82C2093F8CD
:1025D0003A201202CA8593F83950CA8D92B22A4322
:1025E000CA859A6B12060A6393F83F500A6B42EA57
:1025F00005420A63DA8F0D6B120202F47F422A430E
:102600000A6393F83D500A6B2A430A6393F83C200F
:1026100081F8342093F8432081F83520B3F8422024
:1026200012068A631A6C120A8D6B120402F47F027E
:102630002A438A631A6C8D6B120202F47F422A438A
:102640008A6393F847508A6B2A438A6393F846203B
:1026500091F83C5045EA121581F83C50120202F400
:102660007062CA8793F84550CA8F92B22A43CA87CC
:102670005B6CC3F3460381F8403081F84140BDE80C
:10268000F003704770B58CB005460E4600248DF8F7
:102690002F40047704F0C6FF05940694079408942D
:1026A000099476230A9308AB93E807008DE80700A6
:1026B00005AB0ECB286802F0FBFB2846FFF700FBBA
:1026C0008DF82F009DF82F3013F0FF0F03D09DF8E9
:1026D0002F00C0B231E02846FFF7F8FC8DF82F003C
:1026E0009DF82F3013F0FF0F03D09DF82F00C0B2DC
:1026F00023E031462846FFF773FE8DF82F009DF842
:102700002F3013F0FF0F08D1B6F854201204002325
:102710002846FFF795FB8DF82F002B4653F8104BFA
:1027200093E807008DE80700043595E80E00204681
:1027300002F0BEFB9DF82F00C0B20CB070BD00BF10
:10274000036A032B30D0022B30D870B58AB00E4606
:102750000446B1F5805F0BD0B1F5006F03D1FFF7F0
:10276000C3FD054607E029B9FFF7FCFD054602E079
:10277000272500E02625DDB963680493A368059347
:10278000E3680693079663690893A369099324682D
:102790000AAB13E907008DE8070004AB0ECB204617
:1027A00002F086FB284604E027207047002070478F
:1027B00028460AB070BD00BF30B587B0044600237C
:1027C00001930C2502954022039204934FF48063F9
:1027D000059301A9006802F0E3FB29462046FFF7B4
:1027E000E3F907B030BD00BF2DE9F0438DB00446DA
:1027F0000E469146149D159F02680021D162026A1F
:10280000022A05D14FEA592242EAC3594FF4007512
:1028100007954FF01008CDF820804023099300233E
:102820000A934FF480630B9307A9206802F0B8FB6A
:1028300041462046FFF7B8F9002840F095804FF058
:10284000FF33019307FB05F50295902303930223C1
:102850000493002305930123069301A9206802F045
:1028600001FC012F02D91223089301E011230893E0
:102870000CA941F8149D206802F092FB012F1CD98D
:1028800012212046FFF790F9804680B16DE05B6B26
:1028900013F4004F0BD006E0206802F06FFB46F8FF
:1028A0002500013500E00025072DF5D920362368E5
:1028B0005A6B12F4957FEAD01CE011212046FFF7F5
:1028C00073F9804680B151E05B6B13F4004F0BD07D
:1028D00006E0206802F052FB46F82500013500E0D2
:1028E0000025072DF5D920362368596B40F22A427E
:1028F0001142E9D023685B6B13F4807F08D0012F6D
:1029000006D9236A022B03D82046FFF755FF8046DD
:1029100023685A6B12F0080F03D008229A63042030
:1029200024E05A6B12F0020F02D0022098631DE0DF
:102930005A6B12F0200F09D020229A63062015E06E
:1029400002F01CFB46F8040B013D01E04FF0FF359F
:102950002068436B13F4001F01D0002DF0D140F22A
:10296000FF538363404601E000E0FFE70DB0BDE8A0
:10297000F08300BF2DE9F0478CB004460D46914628
:10298000149E159F00228DF803200168CA62026A16
:10299000022A05D14FEA592242EAC3594FF4007680
:1029A00007964FF01008CDF82080402309930023AC
:1029B0000A934FF480630B9307A9206802F0F0FAA2
:1029C00041462046FFF7F0F8002840F0DF80012F55
:1029D00002D91923089301E0182308930CA941F8A0
:1029E000149D206802F0DCFA012F04D91921204639
:1029F000FFF7DAF803E018212046FFF7D5F80028A2
:102A000040F0C48007FB06F64FF0FF3301930296B7
:102A1000902303930023049305930123069301A9B4
:102A2000206802F01FFB012F35D84FF000086CE042
:102A30005B6B13F4804F30D0C8EB060ABAF11F0F5E
:102A400020D81AF0030F02D14FEA9A0A03E04FEAA6
:102A50009A0A0AF1010A4FF0000908E029462068A5
:102A600002F090FA043508F1040809F10109D14592
:102A7000F4D312E005EB8901206802F083FA09F132
:102A8000010901E04FF00009B9F1070FF2D9203533
:102A900008F1200801E04FF0000823685A6B12F497
:102AA0008D7FC5D037E05B6B13F4804F2DD0C8EB22
:102AB000060ABAF11F0F20D81AF0030F02D14FEA0D
:102AC0009A0A03E04FEA9A0A0AF1010A4FF0000954
:102AD00008E02946206802F055FA043508F1040898
:102AE00009F10109D145F4D30FE005EB8901206814
:102AF00002F048FA09F1010901E04FF00009B9F1CB
:102B0000070FF2D9203508F120082368596B40F2ED
:102B10001A421142C7D023685B6B13F4807F07D041
:102B2000012F05D9236A022B02D82046FFF744FE65
:102B300023685A6B12F0080F03D008229A6304200E
:102B400024E05A6B12F0020F02D0022098631DE0BD
:102B50005A6B12F0100F03D010229A63052015E073
:102B600040F2FF529A630DF103012046FFF7F4F99A
:102B700004E00DF103012046FFF7EEF930B99DF8AE
:102B80000330063BDBB2012BF3D9FFE70CB0BDE805
:102B9000F08700BF08B5FFF78FF9042803D0FF289E
:102BA00003D1022008BD002008BD012008BD00BFE0
:102BB000F8B505460F4616461C4636E0B4F1FF3F11
:102BC00033D02CB1FDF77AFC069BC01A84422CD876
:102BD0002A68536823F0E00353606B68B3F5827F83
:102BE0000BD1AB68B3F5004F02D0B3F5806F04D1C1
:102BF0002A68136823F040031360AB6AB3F5005FE3
:102C00000BD12A68136823F400531B041B0C1360B8
:102C10002A68136843F400531360012385F8513088
:102C2000002385F850300320F8BD2B689B683B409B
:102C3000B342C3D10020F8BD10B582B00446009263
:102C40000B4600228021FFF7B3FF034620B1636DDE
:102C500043F0200363650323184602B010BD00BF94
:102C6000002800F0D98010B5044603686B4A9342EF
:102C700010D0A2F5784293420CD002F580629342C4
:102C800008D002F57842934204D04FF4867164482C
:102C900004F096FC63683BB1B3F5827F04D040F248
:102CA0000D115F4804F08CFCA36853B1B3F5806F3D
:102CB00007D0B3F5004F04D04FF48771584804F0A3
:102CC0007FFCE368B3F5006F05D023B140F20F112C
:102CD000534804F075FCA369B3F5007F08D03BB1FD
:102CE000B3F5802F04D04FF488714D4804F068FC90
:102CF000E36993B1082B10D0102B0ED0182B0CD0F9
:102D0000202B0AD0282B08D0302B06D0382B04D00B
:102D100040F21111424804F053FC236A33B1802B76
:102D200004D04FF489713E4804F04AFC636A33B121
:102D3000102B04D040F21311394804F041FC636AAF
:102D400083B9236933B1022B04D04FF48B7134481B
:102D500004F036FC6369012B04D940F217113048A6
:102D600004F02EFCA36A3BB1B3F5005F04D04FF42E
:102D70008D712B4804F024FCA36AB3F5005F0AD1DF
:102D8000E36A013B4FF6FE72934204D940F21D11F3
:102D9000234804F015FC94F8513013F0FF0F05D1CF
:102DA000002384F85030204604F07EFC022384F88F
:102DB00051302268136823F0400313602168626871
:102DC000A3681A43E3681A4323691A4363691A43E1
:102DD000A36903F400731343E2691343226A1343A4
:102DE000A26A1A430A602168638B03F00402636AD3
:102DF00013434B60A36AB3F5005F02D12368E26A14
:102E00001A612268D36923F40063D36100206065EE
:102E1000012384F8513010BD01207047003001407B
:102E20009CC700082DE9F04385B004460D461746BF
:102E300098460C9E0023ADF80E30836823B14FF402
:102E40004A718E4804F0BCFB94F85030012B00F01E
:102E50001081012384F85030FDF730FB814694F84F
:102E60005130DBB2012B0ED06368B3F5827F40F0A6
:102E7000E980A368002B40F0E78094F85130DBB282
:102E8000042B40F0E380002D00F0E280002F00F0E2
:102E9000E180B8F1000F00F0DF8094F85130DBB230
:102EA000012B02D1052384F8513000236365A76309
:102EB000A4F83E80A4F83C802563A4F83680A4F8EA
:102EC000348023646364A36AB3F5005F0BD1226886
:102ED000136823F400531B041B0C1360226813684F
:102EE00043F40053136023681A6812F0400F03D1B3
:102EF0001A6842F040021A60E368B3F5006F66D1C9
:102F00002CE0ABB123689A6812F0020F10D035F8AC
:102F1000022BDA60E38E013B9BB2E38643B9A36ADE
:102F2000B3F5005F04D12268136843F48053136043
:102F3000E38F53B123689A6812F0010F05D0DB6864
:102F400027F8023BE38F013BE387B6F1FF3F05D053
:102F5000FDF7B4FAC9EB000086427FD9E38E002B5F
:102F6000CFD1E28F002ACCD137E0D3B123689A6861
:102F700012F0020F15D0691C2A781A73E38E013BF8
:102F80009BB2E38653B9A36AB3F5005F08D1226808
:102F9000136843F4805313600D4602E00D4600E0D1
:102FA0000D46E38F53B123689A6812F0010F05D0E4
:102FB000DB683B70E38F013BE3870137B6F1FF3FEE
:102FC00005D0FDF77BFAC9EB0000864248D9E38EB5
:102FD000002BCAD1E28F002AC7D1A36AB3F5005FE4
:102FE00015D1CDF800903346012211462046FFF757
:102FF000DFFD28B1636D43F002036365032530E014
:103000002368DB689BB2ADF80E30BDF80E30236844
:103010009A6812F0100F08D0626D42F002026265E9
:103020004FF6EF729A60012500E000254A463146CE
:103030002046FFF701FEA0B1636D43F020036365F6
:1030400001250EE002250CE002250AE0022508E039
:10305000012506E0012504E0012502E0032500E04A
:103060000325012384F85130002384F8503028468A
:1030700000E0022005B0BDE8F08300BF9CC7000857
:1030800070B4036A23F001030362036A426884692F
:1030900024F073040D6844EA050623F002048B68EB
:1030A00023430F4DA84204D00E4CA04203D101246B
:1030B00002E0012400E000245CB123F00803CD68A5
:1030C0002B4323F0040322F440724D6915438A69AF
:1030D0002A43426086614A684263036270BC70475B
:1030E000000001400004014010B4036A046A24F0A7
:1030F00001040462846924F0F00444EA021223F01B
:103100000A0319438261016210BC704710B4036A5C
:1031100023F0100303628469036A24F4704444EAD0
:10312000023223F0A00343EA01118261016210BC64
:10313000704700BF836823F0700341F00701194313
:103140008160704710B4846824F47F4442EA03230A
:10315000194344EA0103836010BC70472DE9F04134
:1031600004460E46036A23F480730362056A4768C7
:10317000C36923F073080B6848EA030825F4007359
:103180008D6843EA0525204B984205D003F58063FE
:10319000984203D1012302E0012300E000235BB346
:1031A000F36833B1082B04D041F20D31174804F015
:1031B00007FAB369B3F5007F05D023B141F20E31B0
:1031C000124804F0FDF97369B3F5807F05D023B18F
:1031D00041F20F310D4804F0F3F925F40065F3686E
:1031E00045EA032525F4806527F44057736947EACB
:1031F0000317B36947EA03176760C4F81C80736854
:10320000E3632562BDE8F08100000140CCC70008FF
:103210002DE9F04104460F46036A23F4805303620C
:10322000056AD0F80480C66926F4E6430E6843EACE
:10323000062625F400538D6843EA0535114B984264
:1032400005D003F58063984203D1012302E00123F6
:1032500000E0002373B17B69B3F5807F05D023B113
:1032600041F25331084804F0ABF928F480487B69F7
:1032700048EA8318C4F80480E6617B682364256209
:10328000BDE8F08100000140CCC7000810B504463D
:103290000368234A934237D0B3F1804F34D0A2F56C
:1032A0007C42934230D002F5806293422CD002F5EA
:1032B0008062934228D002F58062934224D002F5C6
:1032C0008062934220D002F5704293421CD002F5F6
:1032D0007052934218D002F58062934214D002F5E6
:1032E0008062934210D0A2F5983293420CD002F53E
:1032F0008062934208D002F58062934204D04FF47A
:10330000B271084804F05CF92268D36843F0010305
:10331000D3602268136843F001031360002010BDDE
:1033200000000140CCC7000810B504460368284AD5
:10333000934237D0B3F1804F34D0A2F57C42934210
:1033400030D002F5806293422CD002F58062934225
:1033500028D002F58062934224D002F58062934225
:1033600020D002F5704293421CD002F57052934275
:1033700018D002F58062934214D002F58062934225
:1033800010D0A2F5983293420CD002F5806293429D
:1033900008D002F58062934204D040F279110D48C2
:1033A00004F00EF92268D36823F00103D360236888
:1033B000196A41F21112114208D1196A40F24442CD
:1033C000114203D11A6822F001021A60002010BDD8
:1033D00000000140CCC70008704700BF38B590F826
:1033E0003830012B00F0CE820D460446012380F8D0
:1033F0003830022380F839300B68B3F5805F16D07F
:10340000B3F5005F13D093B1102B10D0202B0ED04A
:10341000302B0CD0402B0AD0502B08D0602B06D07C
:10342000702B04D040F66D71B24804F0C9F82268E0
:10343000936823F47F4323F0770393602B68402B3A
:1034400000F0A1810ED8102B00F01B8203D8002BB6
:1034500000F0EE818FE2202B00F03C82302B00F058
:10346000628288E2702B51D006D8502B00F0EC809D
:10347000602B00F043817EE2B3F5805F04D0B3F5AA
:10348000005F00F0928076E223689B4A934237D037
:10349000B3F1804F34D0A2F57C42934230D002F594
:1034A000806293422CD002F58062934228D002F5CC
:1034B0008062934224D002F58062934220D002F5CC
:1034C000704293421CD002F57052934218D002F51C
:1034D0008062934214D002F58062934210D0A2F52C
:1034E000983293420CD002F58062934208D002F5E4
:1034F0008062934204D040F679717E4804F060F80F
:103500002268936823F00703936034E223687A4AC1
:10351000934217D0B3F1804F14D0A2F57C4293426E
:1035200010D002F5806293420CD002F58062934283
:1035300008D002F57842934204D040F682716D487B
:1035400004F03EF86B68B3F5004F0AD04BB143B1BD
:10355000022B06D00A2B04D040F68471654804F093
:103560002FF8AB686BB1B3F5805F0AD0B3F5005F9D
:1035700007D0B3F5405F04D040F685715D4804F094
:103580001FF8EB680F2B04D940F68671594804F0F8
:1035900017F8EB686A68A9682068FFF7D3FD22680E
:1035A000936843F077039360E5E12368524A9342BE
:1035B00017D0B3F1804F14D0A2F57C42934210D0C3
:1035C00002F5806293420CD002F58062934208D0EB
:1035D00002F57842934204D040F69A71454803F0D0
:1035E000EFFF6B68B3F5004F0AD04BB143B1022B2C
:1035F00006D00A2B04D040F69C713E4803F0E0FF51
:10360000AB686BB1B3F5805F0AD0B3F5005F07D04C
:10361000B3F5405F04D040F69D71364803F0D0FF0B
:10362000EB680F2B04D940F69E71324803F0C8FFB7
:10363000EB686A68A9682068FFF784FD22689368D0
:1036400043F48043936096E123682B4A93422FD042
:10365000B3F1804F2CD0A2F57C42934228D002F5E2
:103660008062934224D002F58062934220D002F51A
:10367000784293421CD002F57052934218D002F562
:103680008062934214D002F58062934210D0A2F57A
:10369000983293420CD002F58062934208D002F532
:1036A0008062934204D040F6AC71124803F088FF68
:1036B0006B68B3F5004F0AD04BB143B1022B06D073
:1036C0000A2B04D040F6AF710A4803F079FFEB688B
:1036D0000F2B04D94FF47B61064803F071FFEA68B1
:1036E00069682068FFF700FD50212068FFF722FD80
:1036F00041E100BFCCC70008000001402368A24A96
:1037000093421FD0B3F1804F1CD0A2F57C4293426C
:1037100018D002F58062934214D002F58062934281
:1037200010D002F5784293420CD002F570529342C9
:1037300008D0A2F59432934204D040F6BA7193486F
:1037400003F03EFF6B68B3F5004F0AD04BB143B1B5
:10375000022B06D00A2B04D040F6BD718B4803F033
:103760002FFFEB680F2B04D940F6BE71874803F09A
:1037700027FFEA6869682068FFF7C8FC60212068B5
:10378000FFF7D8FCF7E023687F4A93422FD0B3F1CC
:10379000804F2CD0A2F57C42934228D002F5806263
:1037A000934224D002F58062934220D002F5784201
:1037B00093421CD002F57052934218D002F58062F9
:1037C000934214D002F58062934210D0A2F5983251
:1037D00093420CD002F58062934208D002F58062D9
:1037E000934204D040F6C871684803F0E9FE6B6864
:1037F000B3F5004F0AD04BB143B1022B06D00A2BD0
:1038000004D040F6CB71614803F0DAFEEB680F2B71
:1038100004D940F6CC715D4803F0D2FEEA686968CD
:103820002068FFF761FC40212068FFF783FCA2E0DD
:103830002368554A93421FD0B3F1804F1CD0A2F5A4
:103840007C42934218D002F58062934214D002F574
:103850008062934210D002F5784293420CD002F578
:103860007052934208D0A2F59432934204D040F6AD
:10387000D671464803F0A4FE00212068FFF75AFCE9
:1038800079E02368404A93421FD0B3F1804F1CD0A7
:10389000A2F57C42934218D002F58062934214D084
:1038A00002F58062934210D002F5784293420CD028
:1038B00002F57052934208D0A2F59432934204D09C
:1038C00040F6DC71314803F07BFE10212068FFF7E1
:1038D00031FC50E023682C4A93421FD0B3F1804F53
:1038E0001CD0A2F57C42934218D002F5806293422C
:1038F00014D002F58062934210D002F578429342D0
:103900000CD002F57052934208D0A2F59432934243
:1039100004D040F6E2711D4803F052FE20212068D9
:10392000FFF708FC27E02368174A93421FD0B3F142
:10393000804F1CD0A2F57C42934218D002F58062E1
:10394000934214D002F58062934210D002F578427F
:1039500093420CD002F57052934208D0A2F59432F3
:10396000934204D040F6E871084803F029FE302164
:103970002068FFF7DFFB012384F83930002084F84A
:10398000380038BD022038BD00000140CCC7000817
:10399000704700BF704700BF704700BF704700BF4F
:1039A000704700BF10B5044603681A6912F0020F91
:1039B00017D0DA6812F0020F13D06FF002021A610A
:1039C0000123037603689B6913F0030F02D0FFF70E
:1039D000E3FF04E0FFF7DEFF2046FFF7DFFF0023F1
:1039E000237623681A6912F0040F19D0DA6812F0EE
:1039F000040F15D06FF004021A61022323762368A6
:103A00009B6913F4407F03D02046FFF7C5FF05E014
:103A10002046FFF7BFFF2046FFF7C0FF00232376B5
:103A200023681A6912F0080F19D0DA6812F0080F2B
:103A300015D06FF008021A61042323762368DB692E
:103A400013F0030F03D02046FFF7A6FF05E0204642
:103A5000FFF7A0FF2046FFF7A1FF0023237623688E
:103A60001A6912F0100F19D0DA6812F0100F15D081
:103A70006FF010021A61082323762368DB6913F4C0
:103A8000407F03D02046FFF787FF05E02046FFF781
:103A900081FF2046FFF782FF0023237623681A69FF
:103AA00012F0010F09D0DA6812F0010F05D06FF0A3
:103AB00001021A612046FFF76BFF23681A6912F0B2
:103AC000800F09D0DA6812F0800F05D06FF0800205
:103AD0001A61204600F076FD23681A6912F0400F43
:103AE00009D0DA6812F0400F05D06FF040021A6179
:103AF0002046FFF755FF23681A6912F0200F09D0FE
:103B0000DA6812F0200F05D06FF020021A6120460B
:103B100000F056FD10BD00BF0368454A904214D026
:103B2000B0F1804F13D0A2F57C42904211D002F543
:103B3000806290420FD002F5806290420DD002F573
:103B4000784290420BD101220AE0012208E00122D2
:103B500006E0012204E0012202E0012200E000224E
:103B60001AB123F070034A681343314A90422CD0B3
:103B7000B0F1804F2BD0A2F57C42904229D002F5C3
:103B80008062904227D002F58062904225D002F5F3
:103B90007842904223D002F57052904221D002F533
:103BA000806290421FD002F5806290421DD0A2F543
:103BB000983290421BD002F58062904219D002F5F3
:103BC0008062904217D1012216E0012214E0012206
:103BD00012E0012210E001220EE001220CE001229D
:103BE0000AE0012208E0012206E0012204E00122AD
:103BF00002E0012200E000221AB123F44073CA68F7
:103C0000134303608B68C3620B688362084B98425E
:103C100005D003F58063984203D1012302E001231C
:103C200000E000230BB10B6903630123436170477C
:103C30000000014000286DD010B504460368364AE4
:103C4000934236D0B3F1804F33D0A2F57C429342F9
:103C50002FD002F5806293422BD002F5806293420E
:103C600027D002F58062934223D002F5806293420E
:103C70001FD002F5704293421BD002F5705293425E
:103C800017D002F58062934213D002F5806293420E
:103C90000FD0A2F5983293420BD002F58062934286
:103CA00007D002F58062934203D0D9211B4803F06C
:103CB00087FCA3685BB1102B09D0202B07D0402BC9
:103CC00005D0602B03D0DA21144803F079FC236976
:103CD0004BB1B3F5807F06D0B3F5007F03D0DB2175
:103CE0000E4803F06DFC94F8393013F0FF0F05D146
:103CF000002384F83830204603F064FD022384F862
:103D00003930211D2068FFF707FF012384F839307F
:103D1000002010BD0120704700000140CCC7000802
:103D2000002870D010B504460368384A934237D053
:103D3000B3F1804F34D0A2F57C42934230D002F5EB
:103D4000806293422CD002F58062934228D002F523
:103D50008062934224D002F58062934220D002F523
:103D6000704293421CD002F57052934218D002F573
:103D70008062934214D002F58062934210D0A2F583
:103D8000983293420CD002F58062934208D002F53B
:103D90008062934204D040F2F3311D4803F010FCDE
:103DA000A36863B1102B0AD0202B08D0402B06D07B
:103DB000602B04D04FF47D71154803F001FC23699A
:103DC00053B1B3F5807F07D0B3F5007F04D040F244
:103DD000F5310F4803F0F4FB94F8393013F0FF0F7E
:103DE00005D1002384F838302046FFF7F5FA022386
:103DF00084F83930211D2068FFF78EFE012384F8F6
:103E00003930002010BD0120704700BF0000014084
:103E1000CCC700082DE9F04104460E46036A23F0A2
:103E200010030362056AD0F80480876927F4E6432B
:103E30000F6843EA072725F020038D6843EA05153C
:103E4000164B984205D003F58063984203D10123B5
:103E500002E0012300E00023BBB1F36833B1082B7B
:103E600004D041F2FB110E4803F0AAFB25F08005B7
:103E7000F36845EA031525F0400528F440687369A6
:103E800048EA8308B36948EA8308C4F80480A76154
:103E90007368A3632562BDE8F08100BF00000140A4
:103EA000CCC7000890F83830012B00F02E8170B597
:103EB00016460D460446012380F8383062B1042AC4
:103EC0000AD0082A08D00C2A06D0182A04D040F6B6
:103ED0003E418F4803F074FB2B68602B06D0702B9B
:103EE00004D040F63F418A4803F06AFBAB6833B127
:103EF000022B04D04FF44461854803F061FB2B6929
:103F000033B1042B04D040F64141814803F058FB03
:103F1000022384F839300C2E00F2F080DFE816F02E
:103F20000D00EE00EE00EE005500EE00EE00EE009B
:103F30008E00EE00EE00EE00BE002368754A93424C
:103F40002FD0B3F1804F2CD0A2F57C42934228D0E1
:103F500002F58062934224D002F58062934220D021
:103F600002F5784293421CD002F57052934218D069
:103F700002F58062934214D002F58062934210D021
:103F8000A2F5983293420CD002F58062934208D099
:103F900002F58062934204D040F649415C4803F048
:103FA0000FFB29462068FFF76BF82268936943F0FE
:103FB000080393612268936923F0040393612268E4
:103FC00091692B690B43936198E02368514A9342AE
:103FD0001FD0B3F1804F1CD0A2F57C42934218D081
:103FE00002F58062934214D002F58062934210D0B1
:103FF00002F5784293420CD002F57052934208D0F9
:10400000A2F59432934204D040F65841404803F060
:10401000D7FA29462068FFF7FDFE2268936943F42A
:10402000006393612268936923F48063936122683B
:104030009369296943EA012393615FE02368354A64
:10404000934217D0B3F1804F14D0A2F57C42934233
:1040500010D002F5806293420CD002F58062934248
:1040600008D002F57842934204D040F667412848D0
:1040700003F0A6FA29462068FFF770F82268D36992
:1040800043F00803D3612268D36923F00403D361AA
:104090002268D1692B690B43D3612FE023681D4A45
:1040A000934217D0B3F1804F14D0A2F57C429342D3
:1040B00010D002F5806293420CD002F580629342E8
:1040C00008D002F57842934204D040F67641104879
:1040D00003F076FA29462068FFF79AF82268D36938
:1040E00043F40063D3612268D36923F48063D3610E
:1040F0002268D369296943EA0123D361012384F843
:104100003930002084F8380070BD0220704700BFAD
:10411000CCC700080000014070B504460E461546A5
:10412000264B98422FD0B0F1804F2CD0A3F57C4382
:10413000984228D003F58063984224D003F5806329
:10414000984220D003F5784398421CD003F5705371
:10415000984218D003F58063984214D003F5806329
:10416000984210D0A3F5983398420CD003F58063A1
:10417000984208D003F58063984204D041F27E2132
:104180000F4803F01DFA66B1042E0AD0082E08D09D
:104190000C2E06D0182E04D041F27F21084803F0DF
:1041A0000FFA012303FA06F2236A23EA02032362C9
:1041B000236AB5401D43256270BD00BF0000014069
:1041C000CCC7000838B504460D4603682D4A934213
:1041D00012D0B3F1804F0FD0A2F57C4293420BD0A6
:1041E00002F58062934207D002F58062934203D0C9
:1041F00002F57842934206D135B3042D24D0082D20
:1042000022D00C2D20D0204A934202D1E5B1042DBA
:104210001AD01E4A934200D1B5B11D4A934200D133
:1042200095B11C4A934202D175B1042D0CD01A4AA3
:10423000934200D145B1194A934200D125B140F2D1
:104240005441174803F0BCF9012229462068FFF7C2
:1042500063FF23680B4A934205D002F580629342C4
:1042600003D1012202E0012200E000221AB15A6CBF
:1042700042F400425A642268136843F00103136059
:10428000002038BD000001400040014000440140D2
:104290000048014000180040001C00400020004081
:1042A000CCC7000838B504460D460368394A934226
:1042B00012D0B3F1804F0FD0A2F57C4293420BD0C5
:1042C00002F58062934207D002F58062934203D0E8
:1042D00002F57842934206D135B3042D24D0082D3F
:1042E00022D00C2D20D02C4A934202D1E5B1042DCE
:1042F0001AD02A4A934200D1B5B1294A934200D13B
:1043000095B1284A934202D175B1042D0CD0264AAA
:10431000934200D145B1254A934200D125B140F2E4
:104320007541234803F04CF9002229462068FFF725
:10433000F3FE2368174A934205D002F58062934248
:1043400003D1012202E0012200E000226AB1196AD1
:1043500041F21112114208D1196A40F2444211424D
:1043600003D15A6C22F400425A642368196A41F25C
:104370001112114208D1196A40F24442114203D18C
:104380001A6822F001021A60012384F839300020F3
:1043900038BD00BF00000140004001400044014022
:1043A0000048014000180040001C00400020004070
:1043B000CCC7000838B504460D460368374A934217
:1043C00027D0B3F1804F24D0A2F57C42934220D075
:1043D00002F5806293421CD002F58062934218D0AD
:1043E00002F58062934214D002F58062934210D0AD
:1043F00002F5704293420CD002F57052934208D0FD
:10440000A2F59432934204D04FF4CB61244803F0D8
:10441000D7F82B6893B1102B10D0202B0ED0302B57
:104420000CD0402B0AD0502B08D0602B06D0702B1C
:1044300004D040F259611A4803F0C2F86B68802B2F
:1044400005D023B140F25A61154803F0B9F894F849
:104450003830012B1FD0012284F83820022384F841
:10446000393021684B6823F070034B60216848683D
:104470002B6803434B6021688B6823F080038B60BB
:10448000216888686B6803438B6084F839200020BA
:1044900084F8380038BD022038BD00BF000001405C
:1044A000FCC7000838B505460C460368424A9342EB
:1044B00017D0B3F1804F14D0A2F57C42934210D0B4
:1044C00002F5806293420CD002F58062934208D0DC
:1044D00002F57842934204D040F27E61374803F0FF
:1044E0006FF82368B3F5006F05D023B140F27F6108
:1044F000324803F065F86368B3F5806F05D023B1E7
:104500004FF4D0612D4803F05BF8A3686BB1B3F5AD
:10451000807F0AD0B3F5007F07D0B3F5407F04D089
:1045200040F28161254803F04BF82369B3F5805FC1
:1045300005D023B140F28261204803F041F863695D
:104540003BB1B3F5005F04D040F283611B4803F038
:1045500037F8A369B3F5804F05D023B140F28461E9
:10456000164803F02DF8E368FF2B04D940F285616B
:10457000124803F025F895F83830012B1AD00120A5
:1045800085F83800022385F8393029682268636885
:104590001A43A3681A43E3681A4323691A436369F9
:1045A0001A43A36913434B6485F83900002085F84A
:1045B000380038BD022038BD00000140FCC70008AB
:1045C000704700BF704700BF90F83930DBB2212B35
:1045D0002AD18368B3F5805F0FD1036A02681B8814
:1045E000C3F30803536003691BB9036A0233036210
:1045F00009E0036A0133036205E00268036A591C9B
:1046000001621B785360C38C013B9BB2C3846BB9BE
:104610000268D36823F08003D3600268D36843F054
:104620004003D3600020704702207047002070478D
:104630002DE9F84304464268B14B9A4204D940F24E
:10464000DD61B04802F0BCFFE3683BB1B3F5005F49
:1046500004D040F2DE61AB4802F0B2FF236953B1EF
:10466000B3F5806F07D0B3F5C06F04D040F2DF61BF
:10467000A44802F0A5FF63694FF6F372134200D11C
:1046800023B94FF4DC619F4802F09AFF21680B695F
:1046900023F44052E36813430B612068C36823F49A
:1046A000164222F00C02A168236919436369194379
:1046B000E3690B431343C36021684B6923F44072E1
:1046C000A36913434B61E369B3F5004F40F0BB802E
:1046D000276803F1804303F510439F4203D003F59D
:1046E00080639F4257D1FCF72DFD00EB800000EB6B
:1046F000800065686D00B0FBF5F5834EA6FB0535BF
:104700006D092D01FCF71EFD00EB800000EB800021
:1047100063685B00B0FBF3F9FCF714FD00EB80006D
:1047200000EB800063685B00B0FBF3F3A6FB0323A0
:104730005B094FF0640808FB1393DB003233A6FBE0
:1047400003235B095B0003F4F8731D44FCF7FAFCD8
:1047500000EB800000EB800063685B00B0FBF3F9C6
:10476000FCF7F0FC00EB800000EB800063685B006E
:10477000B0FBF3F3A6FB03235B0908FB13984FEA96
:10478000C80808F13208A6FB0836C6F342163544BD
:10479000BD60BDE8F883FCF7BDFC00EB800000EBDA
:1047A000800065686D00B0FBF5F5574EA6FB05353A
:1047B0006D092D01FCF7AEFC00EB800000EB8000E2
:1047C00063685B00B0FBF3F9FCF7A4FC00EB80002E
:1047D00000EB800063685B00B0FBF3F3A6FB0323F0
:1047E0005B094FF0640808FB1393DB003233A6FB30
:1047F00003235B095B0003F4F8731D44FCF78AFC98
:1048000000EB800000EB800063685B00B0FBF3F915
:10481000FCF780FC00EB800000EB800063685B002D
:10482000B0FBF3F3A6FB03235B0908FB13984FEAE5
:10483000C80808F13208A6FB0836C6F3421635440C
:10484000BD60BDE8F8832668304B9E4203D003F577
:1048500080639E425CD1FCF775FC00EB800000EBAE
:1048600080006568AD00B0FBF5F5274FA7FB053567
:104870006D092D01FCF766FC00EB800000EB800069
:1048800063689B00B0FBF3F8FCF75CFC00EB800076
:1048900000EB800063689B00B0FBF3F3A7FB0323EE
:1048A0005B094FF0640909FB13831B013233A7FB3B
:1048B00003235B0903F0F0031D44FCF743FC00EB0A
:1048C000800000EB800063689B00B0FBF3F8FCF70E
:1048D00039FC00EB800000EB800063689B00B0FBBC
:1048E000F3F3A7FB03235B0909FB13831B0132339B
:1048F000A7FB0323C3F343131D44B560BDE8F8834E
:10490000A037A00030C800081F85EB5100100140FF
:10491000FCF700FC00EB800000EB80006568AD0058
:10492000B0FBF5F5254FA7FB05356D092D01FCF70B
:10493000F1FB00EB800000EB800063689B00B0FBA4
:10494000F3F8FCF7E7FB00EB800000EB8000636806
:104950009B00B0FBF3F3A7FB03235B094FF0640953
:1049600009FB13831B013233A7FB03235B0903F00D
:10497000F0031D44FCF7CEFB00EB800000EB800051
:1049800063689B00B0FBF3F8FCF7C4FB00EB80000E
:1049900000EB800063689B00B0FBF3F3A7FB0323ED
:1049A0005B0909FB13831B013233A7FB0323C3F30A
:1049B00043131D44B560BDE8F88300BF1F85EB516C
:1049C0002DE9F04105460E4690461C46FBF776FD64
:1049D0000746B8F1000F28D057E0B4F1FF3F24D0CC
:1049E00024B1FBF76BFDC01B84421ED22A68D3683A
:1049F00023F08003D3602A68D36823F02003D360B8
:104A00002A68D36823F48073D3602A68536923F03B
:104A100001035361202385F8393085F83A300023AB
:104A200085F838300320BDE8F0812B681B6836EA32
:104A30000303D2D10020BDE8F081B4F1FF3F24D0C0
:104A400024B1FBF73BFDC01B84421ED22A68D36809
:104A500023F08003D3602A68D36823F02003D36057
:104A60002A68D36823F48073D3602A68536923F0DB
:104A700001035361202385F8393085F83A3000234B
:104A800085F838300320BDE8F0812B681B6836EAD2
:104A90000303D2D00020BDE8F08100BF002800F061
:104AA000868010B5044683691BB30368414A93426C
:104AB0000FD0A2F54C4293420BD002F58062934294
:104AC00007D002F54C42934203D0FB213A4802F052
:104AD00077FDA36953B3B3F5807F27D0B3F5007F8B
:104AE00024D0B3F5407F21D0FC21334802F068FD8B
:104AF0001CE003682F4A934218D0A2F54C4293421F
:104B000014D002F58062934210D002F58062934285
:104B10000CD002F58062934208D002F544429342E1
:104B200004D04FF48071244802F04AFDA3683BB1E1
:104B3000B3F5805F04D04FF481711F4802F040FD4F
:104B4000E3693BB1B3F5004F04D040F203111A48BA
:104B500002F036FD94F8393013F0FF0F05D1002331
:104B600084F83830204602F097FF242384F8393047
:104B70002268D36823F40053D3602046FFF758FD22
:104B80002268136923F4904313612268536923F068
:104B90002A0353612268D36843F40053D360002092
:104BA000E063202384F8393084F83A3010BD0120C6
:104BB000704700BF0010014030C8000870B51E46A5
:104BC00090F83930DBB2202B49D104460D4600293C
:104BD00047D0002A47D090F83830012B45D0012328
:104BE00080F838300023C363212380F83930828471
:104BF000C28422E0013BE384A368B3F5805F11D156
:104C00003346002280212046FFF7DAFE78BB226877
:104C10002B88C3F30803536023690BB902350CE0FA
:104C200001350AE03346002280212046FFF7C8FE06
:104C3000F8B923682A785A600135E38C002BD9D162
:104C40003346002240212046FFF7BAFE034690B9C2
:104C5000202284F83920002284F838200CE0022336
:104C60000AE0012308E0012306E0022304E0032315
:104C700002E0032300E00323184670BD90F83A30A9
:104C8000DBB2202B23D121B32AB390F83830012B8B
:104C900023D0012380F8383081628285C2850023C9
:104CA000C363222280F83A200168CA6842F4807205
:104CB000CA6001684A6942F001024A6180F83830EE
:104CC0000168CA6842F02002CA6018467047022094
:104CD000704701207047012070470220704700BFD5
:104CE000704700BF08B50168CB6823F04003CB6074
:104CF000202380F83930FFF7F3FF002008BD00BF04
:104D0000704700BF08B590F83A30DBB2222B43D190
:104D10008368B3F5805F13D1826A036943B903687E
:104D20005B68C3F308031380836A0233836218E06D
:104D300003685B68DBB21380836A0133836210E02F
:104D4000036933B9836A5A1C8262026852681A7016
:104D500007E0826A531C836203685B6803F07F0389
:104D60001370C38D013B9BB2C385BBB90268D36886
:104D700023F02003D3600268D36823F48073D360E8
:104D80000268536923F001035361202380F83A300D
:104D9000FFF7B6FF002008BD022008BD002008BDB7
:104DA000704700BF10B584B0044603681968DA681C
:104DB00011F0010F0DD002F4807252B10022009266
:104DC0001A6800925A680092009AC26B42F001027F
:104DD000C26319685A6902F0010211F0020F0BD088
:104DE00052B1002201921A6801925A680192019A06
:104DF000E26B42F00402E26319685A6902F00102B0
:104E000011F0040F0BD052B1002202921A680292E4
:104E10005A680292029AE26B42F00202E263196857
:104E20005A6902F0010211F0080F0BD052B10022B2
:104E300003921A6803925A680392039AE26B42F053
:104E40000802E2631A68DB6803F0200312F0200F07
:104E500003D013B12046FFF755FF23681A68DB68BB
:104E600003F0800312F0800F03D013B12046FFF748
:104E7000ABFB23681A68DB6803F0400312F0400FB5
:104E800003D013B12046FFF72DFFE36B3BB1202386
:104E900084F8393084F83A302046FFF781FF04B0B7
:104EA00010BD00BF90F8393090F83A0018437047B1
:104EB00084B02DE9F047054609A880E80E002D4B87
:104EC0009D4203D0DD212C4802F07AFBDDF824A0BE
:104ED000BAF1000F06D0BAF5005F03D0DE212648F4
:104EE00002F06EFB0A9C34B1B4F5806F03D0DF2171
:104EF000214802F065FBDDF82C90B9F1000F06D0D7
:104F0000B9F5007F03D0E0211B4802F059FB0C9E4D
:104F10004EB1B6F5006F06D0B6F5805F03D0E12143
:104F2000154802F04DFBDDF83480B8F1000F06D0D3
:104F3000B8F5804F03D0E2210F4802F041FB0E9FED
:104F4000FF2F03D9E3210C4802F03AFB4AEA04039D
:104F500049EA0303334348EA03033B436A6822F404
:104F6000FD4222F07F0213436B600020BDE8F04752
:104F700004B07047002C014060C80008D0F88000E1
:104F8000704700BF0B68C0F880300020704700BF3A
:104F90000323036000207047006800F0030070479F
:104FA00038B505460C464B683F2B04D94FF4B47115
:104FB0001B4802F005FBA36843B1402B06D0C02B71
:104FC00004D040F26911164802F0FAFAE36853B1CE
:104FD000B3F5807F07D0B3F5007F04D04FF4B571EF
:104FE0000F4802F0EDFA23693BB1B3F5806F04D0AE
:104FF00040F26B110A4802F0E3FA2368AB60616883
:10500000A3681943E3680B43226943EA0201EA6893
:1050100022F47F6323F00F030B43EB60002038BDC5
:1050200060C800080069C0B2704700BF10B582B008
:1050300000230193044650B1042808D0082806D064
:105040000C2804D04FF4CB71044802F0B9FA044B99
:1050500023440193019B186802B010BD60C800088A
:10506000142C014038B505460C464B68B3F1007F5F
:1050700004D340F2AB11294802F0A2FAA36803B3AB
:10508000102B1ED0202B1CD0302B1AD0402B18D028
:10509000502B16D0602B14D0702B12D0802B10D038
:1050A000902B0ED0A02B0CD0B02B0AD0C02B08D048
:1050B000D02B06D0E02B04D04FF4D671174802F065
:1050C0007FFAE36833B1022B04D040F2AD111348EC
:1050D00002F076FA236933B1042B04D04FF4D77170
:1050E0000E4802F06DFA6369012B04D940F2AF114A
:1050F0000A4802F065FA23686B626368AB62A268D3
:10510000E3681A432369134362691A43EB6A23F085
:10511000F7031343EB62002038BD00BF60C80008EE
:10512000FEE700BF08B50D4B1B6813B90C4A0B4BCB
:105130001A600A4B1A68C31C23F00303134409497D
:105140008B4206D903F08CFD0C2303604FF0FF3037
:1051500008BD02490B60104608BD00BFB403002023
:10516000741F002000FC012001230360014B0B6031
:10517000704700BF040000200FB400B583B004AB3B
:1051800053F8042B01938021064805F085F9002887
:1051900003DD0146034800F039F803B05DF804EB85
:1051A00004B07047BC0300202DE9F04385B00446ED
:1051B0000F46435613BB042528462146ABBE044682
:1051C0001FE03546102E28BF1025002306E014F9F5
:1051D000011B04AA1A4402F8101C0133AB42F6D397
:1051E00004AA1344002203F8102CE9464FF00408E7
:1051F00040464946ABBE8046761B00E00E46002E78
:10520000DFD1384605B0BDE8F08300BF08B5FFF731
:10521000CBFF08BD08B500F091F8024B024A9A6036
:1052200008BD00BF00ED00E000000008F8B504462E
:105230000D4617461E462648FFF79EFF2168254863
:10524000FFF79AFF61682448FFF796FFA16823489B
:10525000FFF792FFE1682248FFF78EFF216921489E
:10526000FFF78AFF61692048FFF786FFA1691F48A1
:10527000FFF782FFE1691E48FFF77EFF1D48FFF739
:105280007BFF29461C48FFF777FF1C4CE16A1C484E
:10529000FFF772FF216B1B48FFF76EFFE16B1A48A7
:1052A000FFF76AFF15F0800F03D039461748FFF764
:1052B00063FF15F4004F03D031461548FFF75CFF3C
:1052C0001448FFF759FF06991348FFF755FFF8BD3B
:1052D00090C80008A0C80008B0C80008C0C80008EE
:1052E000D0C80008E0C80008F0C8000800C90008DD
:1052F00010C9000820C900082CC9000800ED00E012
:105300003CC900084CC900085CC900086CC9000809
:105310007CC900088CC9000894C9000883691A88F0
:105320008A4207D10268033A012A05D80233836111
:105330000120704700207047002070470C4B1A680E
:1053400042F001021A60002199601A6822F084720A
:1053500022F480321A60074A5A601A6822F48022C6
:105360001A60D9604FF00062034B9A60704700BF2B
:10537000003802401030002400ED00E0224B9B6812
:1053800003F00C03042B07D0082B09D0002B2DD1E0
:105390001E4A1F4B1A602CE01C4A1D4B1A6028E065
:1053A000194B5A685B6803F03F0312F4800F09D071
:1053B000164AB2FBF3F2144B5B68C3F3881303FB8A
:1053C00002F208E0114AB2FBF3F30F4A5168C1F34D
:1053D000881101FB03F20C4B5B68C3F301430133FB
:1053E0005B00B2FBF3F30A4A136002E0074A084B82
:1053F0001A60054B9B68C3F30313064AD15C044A49
:105400001368CB4013607047003802400024F4005A
:105410000C000020D8C9000808B5FBF72DF801F0F2
:1054200057FEFFF7ABFF08BD00B583B005990191AA
:105430000499009101460548FDF7D6F908B101200D
:1054400000E0002003B05DF804FB00BF501C00200A
:1054500000B583B005990191049900910146054872
:10546000FDF788FA08B1012000E0002003B05DF8E4
:1054700004FB00BF501C002008B50248FDF78AFB62
:1054800008BD00BF501C002008B501460148FCF7CC
:10549000A7FF08BD501C002082B001238DF8073003
:1054A0009DF8070002B0704710B5FFF7F5FF01281F
:1054B0000CD1044609490A48FDF7E4F840B94FF415
:1054C00000610748FDF73CF920B104E0012402E047
:1054D000044600E00024204610BD00BF4813002011
:1054E000501C002008B50349034802F025FC034B7B
:1054F000187008BD6004002044CD00085C04002042
:10550000064B074A1A6000225A609A60DA604FF42C
:10551000006119615A6110229A617047501C002085
:10552000002C01402DE9F04F8DB000240194614B17
:105530001A6B42F010021A631A6B02F01002019209
:10554000019A02941A6B42F004021A631A6B02F079
:1055500004020292029A03941A6B42F080021A63C8
:105560001A6B02F080020392039A04941A6B42F0C1
:1055700001021A631A6B02F001020492049A059464
:105580001A6B42F002021A631A6B02F002020592D1
:10559000059A06941A6B42F008021A631B6B03F01B
:1055A00008030693069BDFF814A122464CF61B0164
:1055B0005046FBF7EBF9404F22464DF29921384611
:1055C000FBF7E4F9DFF8F880224649F6101140466F
:1055D000FBF7DCF9DFF8ECB022464BF2E03158463D
:1055E000FBF7D4F9DFF8E09022464FF63B714846CE
:1055F000FBF7CCF940F60B030793012508950994B6
:105600000A9407A95046FBF71BF84CF210030793C6
:105610000895099403260A9607A95046FBF710F847
:105620004CF299230793089509940A9407A93846E0
:10563000FBF706F849F610030793089509940A94B6
:1056400007A94046FAF7FCFF4BF2E03307930895B1
:1056500009940A9407A95846FAF7F2FF4FF63A332D
:105660000793089509940A9407A94846FAF7E8FFB2
:1056700040F201430793089509940A9607A9484602
:10568000FAF7DEFF4FF480730793089509940A96A2
:1056900007A94046FAF7D4FF4FF4805307930895C3
:1056A00009940A9607A93846FAF7CAFF0DB0BDE873
:1056B000F08F00BF00380240000802400010024096
:1056C0000000024000040240000C024010B5A0F1AE
:1056D0001403DBB2132B00F28D80A0F1140201231E
:1056E00093409BB2012905D149490A8813430B8095
:1056F000012206E0DB439BB245490A8813400B8038
:1057000000221438132800F28280DFE800F00A102B
:10571000161C22272D33393F454B51575D6380803E
:10572000806D4FF480513B48FBF730F910BD4FF4CA
:1057300000613848FBF72AF910BD4FF480713548F5
:10574000FBF724F910BD4FF400713348FBF71EF945
:1057500010BD80213048FBF719F910BD4FF400410E
:105760002E48FBF713F910BD4FF480412B48FBF78F
:105770000DF910BD4FF400512848FBF707F910BD93
:105780004FF480512548FBF701F910BD4FF400613B
:105790002248FBF7FBF810BD4FF480611F48FBF770
:1057A000F5F810BD4FF400711C48FBF7EFF810BD81
:1057B0004FF480711948FBF7E9F810BD4FF4004130
:1057C0001748FBF7E3F810BD4FF400511448FBF7FE
:1057D000DDF810BD134B1B78032B18D14FF480510B
:1057E0000F48FBF7D3F810BD4FF400610E48FBF7EC
:1057F000CDF810BDA0F12803DBB2032B07D8A0F130
:105800002804084602F0E4FF084B43F8240010BDCA
:10581000B01C00200000024000080240000C0240C2
:1058200000040240E014002000100240AC0E0020F2
:1058300008B50238472872D8DFE800F06B71717143
:105840007171717171717171717171717171717148
:105850007171717171717171717171717171717138
:10586000717171717171717171717171242B323833
:105870003F7171717171454C71717171717171719B
:1058800053595F6500224FF480512548FBF77EF89D
:1058900008BD00224FF400412248FBF777F808BD0D
:1058A000002201212048FBF771F808BD00224FF4C7
:1058B00080411C48FBF76AF808BD002210211948F6
:1058C000FBF764F808BD00224FF480411448FBF751
:1058D0005DF808BD00224FF400411148FBF756F86F
:1058E00008BD002201210E48FBF750F808BD002238
:1058F00008210B48FBF74AF808BD002210210B488D
:10590000FBF744F808BD002210210548FBF73EF8DC
:1059100008BD01224FF400410448FBF737F808BDE9
:105920000008024000100240000C0240000002404B
:1059300008B50238472872D8DFE800F06B71717142
:105940007171717171717171717171717171717147
:105950007171717171717171717171717171717137
:10596000717171717171717171717171242B323832
:105970003F7171717171454C71717171717171719A
:1059800053595F6501224FF480512548FAF7FEFF15
:1059900008BD01224FF400412248FAF7F7FF08BD85
:1059A000012211462048FAF7F1FF08BD01224FF409
:1059B00080411C48FAF7EAFF08BD0122102119486E
:1059C000FAF7E4FF08BD01224FF480411448FAF7CA
:1059D000DDFF08BD01224FF400411148FAF7D6FF60
:1059E00008BD012211460E48FAF7D0FF08BD01227A
:1059F00008210B48FAF7CAFF08BD012210210B4805
:105A0000FAF7C4FF08BD012210210548FAF7BEFFCE
:105A100008BD00224FF400410448FAF7B7FF08BD63
:105A20000008024000100240000C0240000002404A
:105A300030B585B072B6322549E000238DF80C30C0
:105A400004238DF80D302846FFF7F2FE0123009362
:105A5000022302AA03A92048FDF7E4F9032803D191
:105A60001E4A1368013313602846FFF761FF0124C3
:105A700029E0630843F008038DF80C30E30143F09C
:105A800004038DF80D302846FFF7D2FE0123009362
:105A9000022302AA03A91048FDF7C4F92846FFF71C
:105AA00047FFA5F13202611E9DF809309DF80800FC
:105AB00001EB021243EA0023C3F30B03084921F868
:105AC00012300134E4B2102CD3D90135EDB2362DA9
