:020000040800F2
:1000000000000220F5020008FD02000801030008BC
:100010007503000879030008C10300080000000010
:1000200000000000000000000000000009040008BB
:100030000D040008000000001104000895140008D9
:1000400025040008250400082504000825040008EC
:1000500025040008250400082504000825040008DC
:1000600025040008250400082504000825040008CC
:1000700025040008250400082504000825040008BC
:1000800025040008250400082504000825040008AC
:10009000250400082504000825040008250400089C
:1000A000250400082504000825040008250400088C
:1000B000250400082504000825040008250400087C
:1000C000250400082504000825040008250400086C
:1000D000250400082504000825040008250400085C
:1000E000250400082504000825040008250400084C
:1000F000250400082504000825040008250400083C
:10010000250400082504000825040008250400082B
:10011000250400082504000825040008250400081B
:10012000250400082504000825040008250400080B
:10013000250400080000000000000000250400085D
:1001400025040008250400082504000825040008EB
:1001500025040008250400082504000825040008DB
:1001600025040008250400082504000825040008CB
:1001700025040008250400082504000800000000EC
:10018000000000002504000800000000000000003E
:1001900025040008000000000000000025040008FD
:1001A000000000000000000000000000250400081E
:1001B000250400082504000825040008250400087B
:1001C0002504000800B583B001F000F8384B394A27
:1001D0001360394A136039490CE00A684B6801F131
:1001E0000C04886803E011681960043304329842F3
:1001F000F9D82146324B9942EFD32E4B1A68314B36
:100200009A4204D12C4B1A682F4B9A4200D0FEE739
:10021000274B2E4A13602E4A13602E4B0AE01946D4
:1002200051F8082B5B6802E00020106004329A420B
:10023000FAD30B46284A9342F1D3244B1B6813B9D7
:10024000234B1B6803B1FEE701F080F9694601A862
:1002500000F04CFF214C224B1C1BA410002504E095
:100260001E4B53F8253098470135AC42F8DC1D4C45
:100270001D4B1C1BA410002504E01A4B53F825301D
:1002800098470135AC42F8DC0099019801F078F903
:100290000546164C164B1C1BA41004E0013C134BE6
:1002A00053F824309847002CF8DC284600F0F0FE84
:1002B000BABADECA0000002074000020280400083A
:1002C00040040008785634123254769878000020A2
:1002D00028010020400400085004000850040008D1
:1002E0005004000850040008540400085404000896
:1002F0005404000808B5FFF765FF00BF00BEFEE725
:100300001EF0040F0CBFEFF30880EFF30980714675
:10031000414A10472DE9F04182B004468846134B0C
:100320005E6B9F6B9D6A1B6B13F0020F0DD00F4B22
:10033000DB6A002B09DA4BF6AB6100F0CBFF20B192
:100340004FF00042094BDA620CE0094800F0E0FE91
:10035000CDF800803B4632462946204600F042FF59
:1003600000BEFEE702B0BDE8F08100BF00ED00E096
:100370000422000800BEFEE71EF0040F0CBFEFF3DE
:100380000880EFF309807146244A10472DE9F041B7
:1003900082B004468846084B5E6B9F6B9D6A074897
:1003A00000F0B6FECDF800803B4632462946204696
:1003B00000F018FF00BEFEE700ED00E01422000888
:1003C0001EF0040F0CBFEFF30880EFF309807146B5
:1003D000134A10472DE9F04182B004468846084B85
:1003E0005E6B9F6B9D6A074800F092FECDF800801F
:1003F0003B4632462946204600F0F4FE00BEFEE7AA
:1004000000ED00E02022000800BEFEE700BEFEE78F
:1004100000BEFEE770470000150300088D030008CA
:08042000D503000800BEFEE751
:10042800B02200080000002078000020B022000858
:100438000000001000000010780000202C010020AF
:0C04480000000010000000105116000819
:1004600010B5044600F0FAFD064BA3FB00308009EE
:1004700000F092F8002221464FF0FF3000F04AF8D9
:10048000002010BDD34D621008B50B4B1A6842F422
:1004900000721A601A6842F480621A601A6842F4A4
:1004A00080721A60032000F017F80F20FFF7D8FFC2
:1004B00001F0D6F8002008BD003C0240024A136853
:1004C00001331360704700BF20010020014B186802
:1004D000704700BF2001002010B50446C31E042B46
:1004E00003D9A421094800F009FE094AD36823F47E
:1004F000E0631B041B0C240204F4E064234343F078
:10050000BF6343F40033D36010BD00BF981F0008E1
:1005100000ED00E070B504460E4615460F2A03D9DB
:10052000BC211A4800F0EAFD0F2E03D9BD2117485F
:1005300000F0E4FD164BDA68C2F30222C2F10701B3
:10054000042928BF0421131D062B01D9033A00E01A
:100550000022012303FA01F101393140914003FAED
:1005600002F2013A2A400A43002C06DA04F00F0492
:100570001201D2B2074B1A5570BD1201D2B204F16A
:10058000604404F5614484F8002370BD981F00089E
:1005900000ED00E014ED00E00138B0F1807F0AD2F8
:1005A000064B5860F021064A82F82310002098601C
:1005B00007221A6070470120704700BF10E000E07A
:1005C00000ED00E010B50446042805D020B140F24B
:1005D000B311084800F092FD042C05D1064A1368B7
:1005E00043F00403136010BD034A136823F00403AF
:1005F000136010BD981F000810E000E02DE9F047DF
:1006000082B080460F46AB4B98421FD003F5806303
:1006100098421BD003F58063984217D003F580639E
:10062000984213D003F5806398420FD003F580639E
:1006300098420BD003F58063984207D003F580639E
:10064000984203D0C5219C4800F058FD3B881BB957
:10065000C621994800F052FD7B68012B22D9112B4D
:1006600020D0022B1ED0122B1CD0944A934219D0BA
:1006700002F58012934215D002F58012934211D0F8
:10068000A2F5F81293420DD002F58012934209D0E0
:1006900002F58012934205D0032B03D0C721864870
:1006A00000F02CFDBB68022B03D9C821824800F062
:1006B00025FD00253EE10124AC403E682640B442C1
:1006C00040F037817B68022B01D0122B69D13B6946
:1006D000002B56D0092B54D0002B52D0002B50D0D9
:1006E000002B4ED0002B4CD0012B4AD049D0022BEE
:1006F00047D046D045D0032B43D0042B41D040D027
:100700003FD0052B3DD03CD0092B3AD0062B38D01A
:10071000092B36D0072B34D033D032D0082B30D031
:100720002FD02ED0092B2CD02BD00A2B29D028D07B
:100730000B2B26D00C2B24D023D00D2B21D00F2B0C
:100740001FD0052B1DD00C2B1BD0062B19D0032B33
:1007500017D0042B15D0052B13D0062B11D010D099
:10076000072B0ED00DD00CD00BD0082B09D008D001
:10077000092B06D00A2B04D003D0D9214E4800F013
:10078000BDFCEA08083258F8220005F0070399007A
:100790000F238B4020EA03003B698B40034348F85A
:1007A0002230D8F800304FEA450A4FF0030909FA21
:1007B0000AF96FEA090903EA09027B6803F00303F7
:1007C00003FA0AF31343C8F800307B685A1E012A63
:1007D00003D9112B01D0122B1BD1FB68032B03D99A
:1007E000EC21354800F08AFCD8F8083009EA030209
:1007F000FB6803FA0AF31343C8F80830D8F804304A
:1008000023EA04047B68C3F30013AB401C43C8F81D
:100810000440D8F80C3009EA0309BB6803FA0AF36C
:1008200049EA0303C8F80C307B6813F0805F00F0DE
:10083000808000230193224B5A6C42F480425A6418
:100840005B6C03F480430193019BA9088A1C1D4B38
:1008500053F8220005F003039B000F229A4020EA80
:100860000200144A904519D002F58062904517D0D5
:1008700002F58062904515D002F58062904513D054
:1008800002F58062904511D002F5806290450FD04C
:1008900002F58062904517D1062216E0002214E08E
:1008A000012212E0022210E003220EE004220CE0FA
:1008B00005220AE000000240CC1F000800001110D1
:1008C0000038024000380140082202FA03F30343D3
:1008D00002311B4A42F821301A4B1A68F34302EAEC
:1008E0000301786810F4803F01D046EA0201154AFE
:1008F0001160526803EA0201786810F4003F01D0E9
:1009000046EA02010F4A5160926803EA02017868E0
:1009100010F4801F01D046EA02010A4A9160D268B1
:100920001340796811F4001F01D046EA0203054A1A
:10093000D36001350F2D7FF6BEAE02B0BDE8F08763
:1009400000380140003C014030B583B004460368E4
:100950000F2B03D9F6219C4800F0D0FB236813F03D
:10096000010F45D06368012B05D9052B03D0FB216E
:10097000954800F0C3FB954B9B6803F00C03042BD8
:100980000AD0924B9B6803F00C03082B0CD18F4BC1
:100990005B6813F4800F07D08C4B1B6813F4003F87
:1009A00026D0636823BBCCE12279894B1A70636837
:1009B0007BB1FFF78BFD054605E0FFF787FD401B88
:1009C000642800F2C081814B1B6813F4003FF4D00F
:1009D0000EE0FFF77BFD054605E0FFF777FD401BC6
:1009E000642800F2B281794B1B6813F4003FF4D104
:1009F000236813F0020F6AD0E368012B04D940F298
:100A00002D11714800F07AFB23691F2B04D94FF494
:100A100097716D4800F072FB6C4B9B6813F00C0FE4
:100A20000AD06A4B9B6803F00C03082B1BD1674B61
:100A30005B6813F4800F16D1644B1B6813F0020F30
:100A400003D0E368012B40F082816048036823F003
:100A5000F8012369F82292FAA2F2B2FA82F29340E4
:100A60000B43036033E0E368FBB10122594B1A608A
:100A7000FFF72CFD054605E0FFF728FD401B022887
:100A800000F26781514B1B6813F0020FF4D04F48FE
:100A9000036823F0F8012369F82292FAA2F2B2FA6D
:100AA00082F293400B43036011E00022494B1A602D
:100AB000FFF70CFD054605E0FFF708FD401B022887
:100AC00000F24981414B1B6813F0020FF4D12368F7
:100AD00013F0080F2ED06369012B04D94FF4B771BE
:100AE000394800F00BFB636993B101223A4B1A605D
:100AF000FFF7ECFC054605E0FFF7E8FC401B022889
:100B000000F22B81314B5B6F13F0020FF4D011E038
:100B10000022314B1A60FFF7D9FC054605E0FFF7CC
:100B2000D5FC401B022800F21A81284B5B6F13F0A2
:100B3000020FF4D1236813F0040F60D0A368012BD7
:100B400006D9052B04D04FF4CC711F4800F0D6FA1B
:100B5000002301931D4B1A6C42F080521A641B6CE7
:100B600003F080530193019B1C4A136843F4807384
:100B70001360FFF7ABFC054605E0FFF7A7FC401B41
:100B8000022800F2EE80154B1B6813F4807FF4D02E
:100B9000227A134B1A70A3688BB1FFF797FC0546B6
:100BA00007E0FFF793FC401B41F28833984200F2C4
:100BB000DA80064B1B6F13F0020FF2D01FE0FFF735
:100BC00085FC054616E000BF0C20000800380240F6
:100BD0000238024000004742800E47420070004049
:100BE00070380240FFF772FC401B41F28833984294
:100BF00000F2BB80634B1B6F13F0020FF2D1A369AD
:100C0000022B04D940F2CD115F4800F077FAA369B6
:100C1000002B00F0AC805B4A926802F00C02082ABC
:100C200000F0A780022B79D1E3693BB1B3F5800FC7
:100C300004D04FF4EB71544800F060FA236A3F2B64
:100C400004D940F2D711504800F058FA636A323B99
:100C5000B3F5BF7F04D94FF4EC714B4800F04EFA66
:100C6000A36A022B0AD0042B08D0062B06D0082B2F
:100C700004D040F2D911444800F040FAE36A043B42
:100C80000B2B04D94FF4ED713F4800F037FA0022E6
:100C90003E4B1A60FFF71AFC054604E0FFF716FC0E
:100CA000401B022867D8374B1B6813F0007FF5D133
:100CB000E169236A1943636A47F6C07292FAA2F2A5
:100CC000B2FA82F293401943A36A5B085A1E4FF4AA
:100CD000403393FAA3F3B3FA83F302FA03F30B431B
:100CE000E26A4FF0706191FAA1F1B1FA81F18A40A4
:100CF0001343244A53600122244B1A60FFF7E6FB9A
:100D0000044604E0FFF7E2FB001B022835D81D4B28
:100D10001B6813F0007FF5D0002031E000221B4B50
:100D20001A60FFF7D3FB044604E0FFF7CFFB001B7C
:100D3000022824D8134B1B6813F0007FF5D1002044
:100D40001EE001201CE003201AE0032018E001202F
:100D500016E0032014E0032012E0032010E003203B
:100D60000EE003200CE003200AE0032008E000204E
:100D700006E0012004E0032002E0032000E003205D
:100D800003B030BD003802400C200008600047422C
:100D900070B504460D460368013B0E2B04D94FF491
:100DA0000E71834800F0AAF90F2D04D940F23921C1
:100DB0007F4800F0A3F97F4B1B6803F00F039D42AF
:100DC00008D9EBB27B4A1370136803F00F039D42FE
:100DD00040F0DB80236813F0020F1DD0A368A3B19D
:100DE000802B12D0902B10D0A02B0ED0B02B0CD07B
:100DF000C02B0AD0D02B08D0E02B06D0F02B04D08B
:100E00004FF414716A4800F079F96B498B6823F04C
:100E1000F002A36813438B60236813F0010F64D0C2
:100E20006368032B04D940F25721614800F066F94A
:100E30006268012A05D1604B1B6813F4003F0FD193
:100E4000A5E0931E012B05D85B4B1B6813F0007FB8
:100E500006D19EE0584B1B6813F0020F00F09B80F8
:100E600055498B6823F0030313438B60FFF72EFB78
:100E700006466368012B0FD107E0FFF727FB801BB5
:100E800041F28833984200F288804B4B9B6803F014
:100E90000C03042BF1D128E0022B0ED106E0FFF762
:100EA00015FB801B41F28833984278D8424B9B68EF
:100EB00003F00C03082BF2D117E0032B10D13E4BAB
:100EC0009B68FFF703FB801B41F288339842F6D9F9
:100ED00067E0FFF7FBFA801B41F28833984262D843
:100EE000354B9B6813F00C0FF3D1324B1B6803F0AA
:100EF0000F039D4207D2EAB22E4B1A701B6803F013
:100F00000F039D4251D1236813F0040F19D0E368F9
:100F100083B1B3F5805F0DD0B3F5A05F0AD0B3F510
:100F2000C05F07D0B3F5E05F04D040F2B5212048A0
:100F300000F0E4F820498B6823F4E052E36813439F
:100F40008B60236813F0080F1AD0236983B1B3F5BF
:100F5000805F0DD0B3F5A05F0AD0B3F5C05F07D0B6
:100F6000B3F5E05F04D04FF42F71114800F0C6F8DC
:100F7000114A936823F46043216943EAC1039360F3
:100F80000F20FFF76DFA002070BD012070BD012019
:100F900070BD012070BD012070BD032070BD032015
:100FA00070BD032070BD032070BD012070BD00BF67
:100FB0000C200008003C024000380240244B9B6893
:100FC00003F00C03042B3FD0082B01D021487047BD
:100FD00010B41F4B586800F03F005B6813F4800F9B
:100FE00010D01D4BB3FBF0F0194B5A6847F6C07197
:100FF0000A4091FAA1F3B3FA83F322FA03F303FB55
:1010000000F310E0134BB3FBF0F0114B5A6847F6B6
:10101000C07402EA040194FAA4F2B2FA82F221FA4C
:1010200002F202FB00F30A4A506800F440324FF427
:10103000403090FAA0F0B0FA80F022FA00F00130CF
:101040004000B3FBF0F001E00348704710BC70476C
:10105000003802400024F40000127A0008B5FFF7BF
:10106000ADFF084B9B6803F0F002F02393FAA3F363
:10107000B3FA83F322FA03F3034AD35CD840034B59
:10108000186008BD00380240FC1F00080C0000205A
:10109000FEE700BF08B5034800F052F80120FFF753
:1010A000F7FF00BF3C20000808B50D4B1B6813B9C3
:1010B0000C4A0B4B1A600A4B1A68C31C23F003033B
:1010C000134409498B4206D900F0CCFA0C23036083
:1010D0004FF0FF3008BD02490B60104608BD00BF4D
:1010E0007C0000202C01002000FC01200123036073
:1010F000014B0B60704700BF0400002008B50A4692
:101100000146024800F004F8FFF7C4FF90200008F1
:101110000FB400B583B004AB53F8042B01938021C6
:10112000064800F0D9FA002803DD0146034800F024
:1011300049F803B05DF804EB04B070478400002068
:1011400010B5044600F094FA0146204600F03AF843
:101150000121024800F036F810BD00BF80210008D0
:101160002DE9F04385B004460F46435613BB0425D2
:1011700028462146ABBE04461FE03546102E28BF48
:101180001025002306E014F9011B04AA1A4402F8F2
:10119000101C0133AB42F6D304AA1344002203F817
:1011A000102CE9464FF0040840464946ABBE804645
:1011B000761B00E00E46002EDFD1384605B0BDE8B4
:1011C000F08300BF08B5FFF7CBFF08BD08B500F0FE
:1011D00091F8024B024A9A6008BD00BF00ED00E0A2
:1011E00000000008F8B504460D4617461E4626487E
:1011F000FFF78EFF21682548FFF78AFF61682448C2
:10120000FFF786FFA1682348FFF782FFE1682248C5
:10121000FFF77EFF21692148FFF77AFF61692048C7
:10122000FFF776FFA1691F48FFF772FFE1691E48CB
:10123000FFF76EFF1D48FFF76BFF29461C48FFF7BD
:1012400067FF1C4CE16A1C48FFF762FF216B1B48DB
:10125000FFF75EFFE16B1A48FFF75AFF15F0800FAA
:1012600003D039461748FFF753FF15F4004F03D05A
:1012700031461548FFF74CFF1448FFF749FF069920
:101280001348FFF745FFF8BDE8200008F8200008E4
:10129000082100081821000828210008382100082A
:1012A000482100085821000868210008782100081A
:1012B0008421000800ED00E094210008A42100082A
:1012C000B4210008C4210008D4210008E42100084A
:1012D000EC21000883691A888A4207D10268033A20
:1012E000012A05D80233836101207047002070472E
:1012F000002070470C4B1A6842F001021A6000216E
:1013000099601A6822F0847222F480321A60074AC7
:101310005A601A6822F480221A60D9604FF0006285
:10132000034B9A60704700BF003802401030002421
:1013300000ED00E0224B9B6803F00C03042B07D068
:10134000082B09D0002B2DD11E4A1F4B1A602CE010
:101350001E4A1D4B1A6028E0194B5A685B6803F05F
:101360003F0312F4800F09D0184AB2FBF3F2144B7A
:101370005B68C3F3881303FB02F208E0114AB2FB77
:10138000F3F30F4A5168C1F3881101FB03F20C4BD0
:101390005B68C3F3014301335B00B2FBF3F30A4A1A
:1013A000136002E0074A084B1A60054B9B68C3F3C1
:1013B0000313074AD15C044A1368CB40136070479B
:1013C000003802400024F4000C00002000127A00D3
:1013D0003022000810B4016042600373012303FA55
:1013E00002F2826010BC7047037B5BB1036803F5B7
:1013F000801380339B02426802F1100101228A406F
:101400009A617047036803F5801380339B028268FA
:101410009A617047037B3BB1036803F58013803307
:101420009B0282689A617047036803F580138033DA
:101430009B02426802F1100101228A409A617047C2
:1014400010B586B004460D49086B2368012202FAE4
:1014500003F303430B63A3680193029202230493F3
:101460000392206800F58010803001A98002FFF708
:10147000C5F82046FFF7CEFF06B010BD0038024089
:10148000034B1860024B1B68002BFBD1704700BF59
:101490000401002008B5FFF711F8044B1B681BB1CD
:1014A000024A1368013B136008BD00BF040100201D
:1014B00030B595B000240094214B1A6C42F0805254
:1014C0001A641B6C03F080530093009B01941D4B26
:1014D0001A6842F440421A601B6803F440430193C7
:1014E000019B0123079308934FF480030E93082375
:1014F0000F934FF4A87310930225119507231293AD
:101500000D9507A8FFF720FA0F2302930395049483
:101510004FF4A05305934FF480530693052102A87E
:10152000FFF736FCFFF79AFD074BA3FB003080095D
:10153000FFF732F80420FFF745F815B030BD00BFC3
:101540000038024000700040D34D621008B5FEF72D
:101550009BFFFFF7ADFFFFF7EDFE08BD01280BD1A4
:1015600008B54FF6FF73994205D1002305221946AD
:101570000248FFF72FFF08BD704700BF0801002099
:1015800038B52B48FFF7DCFD2A4C21682A48FFF7C5
:10159000BFFD2368294AA2FB03239B09013BB3F14A
:1015A000807F09D2264A5360F021264B83F823100E
:1015B0000023936007231360002434B9224800EB12
:1015C0000410FFF73DFF0134F7E7002434B91E484B
:1015D00000EB0410FFF708FF0134F7E74FF47A70CF
:1015E000FFF74EFF002434B9174800EB0410FFF753
:1015F00011FF0134F7E7FA20FFF742FF01211348FA
:10160000FFF786FD0124104D2846FFF7EDFE40F25E
:10161000EE20FFF735FF2846FFF7FCFEFA20FFF724
:101620002FFF013421460948FFF772FDEBE700BFA9
:10163000402200080C00002054220008D34D621004
:1016400010E000E000ED00E0080100206C2200083E
:1016500008B54FF6FF710120FFF780FF08BD00BFFE
:10166000704700BF014B1868704700BF7000002032
:10167000034613F8012B002AFBD1181A01387047D2
:1016800030B5141E05469BB0184604DA8B232B6038
:101690004FF0FF301DE04FF40273ADF80C3014BF73
:1016A00004F1FF332346029305934FF6FF73009135
:1016B0000491ADF80E3002461E9B6946284600F0A4
:1016C00073F8431CBCBF8B232B6014B1009B00221A
:1016D0001A701BB030BD000007B5009313460A46D0
:1016E000014603480068FFF7CBFF03B05DF804FB39
:1016F000700000202DE9F0478E689E4282460C461D
:10170000914698463ED88A8912F4906F3AD025685F
:1017100009696F1A6569022305EB450595FBF3F529
:101720007B1C43449D4238BF1D4653050FD52946B7
:1017300000F092FB064698B13A46216900F018FB8A
:10174000A38923F4906343F08003A38113E02A4626
:1017500000F0E0FB064670B92169504600F02EFB10
:101760000C23CAF80030A38943F04003A3814FF053
:10177000FF30BDE8F087266165613E44ED1B2660C1
:10178000A5604646464528BF46463246494620683B
:1017900000F0F9FAA3689B1BA36023681E4426602F
:1017A0000020BDE8F08700002DE9F04F9DB0804695
:1017B00003938B891C060D4616460DD50B695BB944
:1017C000402100F049FB2860286118B90C23C8F8B3
:1017D0000030CDE040236B610023099320238DF876
:1017E0002930DFF89CB130238DF82A3037463C464B
:1017F00014F8013B1BB9B7EB060910D003E0252B09
:10180000F9D02746F3E74B46324629464046FFF7D4
:1018100071FF013000F0A780099B4B4409933B788E
:10182000002B00F0A08000234FF0FF3204930793B9
:10183000059206938DF853301A93012605222178DC
:101840004E4800F045FA671C049B38B14B4A801A99
:1018500006FA00F0184304903C46EFE7D90644BF6F
:1018600020228DF853201A0744BF2B228DF85320D5
:1018700022782A2A03D0079A00210A200BE0039A33
:10188000111D12680391002A10DA524243F002003F
:10189000079204900BE0274601343B78303B092B3C
:1018A00003D800FB02320121F5E701B107923B7832
:1018B0002E2B1ED17B782A2B0AD1039B1A1D1B6865
:1018C0000392002BB8BF4FF0FF330237059310E0AF
:1018D00000230593781C19460A24074601303A78FC
:1018E000303A092A03D804FB01210123F5E703B1AB
:1018F000059103223978224800F0EAF940B14023EB
:10190000CBEB000003FA00F0049B1843049001376E
:1019100039781C488DF8281006227E1C00F0D8F972
:1019200088B1194B33B9039B073323F007030833FE
:10193000039314E003AB00932A46144B04A94046DA
:10194000AFF3008007E003AB00932A460F4B04A9D6
:10195000404600F093F8B0F1FF3F824603D0099B68
:101960005344099342E7AB895B0601D4099801E02F
:101970004FF0FF301DB0BDE8F08F00BF7A220008A5
:10198000802200088422000800000000F5160008EC
:101990002DE9F04791461F460A698B68DDF82080E3
:1019A0009342B8BF1346C9F8003091F84320064669
:1019B0000C4612B10133C9F800302368990642BFC2
:1019C000D9F800300233C9F80030256815F0060553
:1019D00010D104F1190A07E0012352463946304676
:1019E000C04701301AD00135E368D9F800209B1AAE
:1019F0009D42F1DB94F843302268003318BF012385
:101A000092060FD5E1185A1C302081F84300224479
:101A100094F8451082F84310023303E04FF0FF3092
:101A2000BDE8F08704F1430239463046C047013033
:101A3000F4D02268D9F80050E36802F00602042AC4
:101A400008BF5D1B2269A3680CBF25EAE575002568
:101A50009342C4BF9B1AED184FF000091A344D454C
:101A600009D00123224639463046C0470130D5D03F
:101A700009F10109F3E70020BDE8F0872DE9F04303
:101A800017460A7E85B06E2A984606460C460C9B81
:101A900001F1430E00F0AE8011D8632A22D009D89C
:101AA000002A00F0BB80582A40F0CA8081F8452007
:101AB000834955E0642A1ED0692A1CD0C0E0732AED
:101AC00000F0B08009D86F2A2ED0702A40F0B8807C
:101AD0000A6842F020020A603EE0752A24D0782A83
:101AE0003AD0ADE01A6801F14205111D1960136882
:101AF00084F84230A8E021681A6811F0800F02D003
:101B0000111D196008E011F0400F02F10401196085
:101B100002D0B2F9003000E01368002B3CDA2D222D
:101B20005B4284F8432037E021681A6811F0800F87
:101B300002D0111D196007E011F0400F02F10401FD
:101B4000196001D0138800E01368227E5C496F2A77
:101B500014BF0A2208221BE078225A4984F8452043
:101B60002268186812F0800F00F104051D6003D18F
:101B7000550601D5038800E00368D00744BF42F052
:101B8000200222601BB9226822F02002226010226B
:101B9000002084F8430001E049490A226568A560F5
:101BA000002D08DB206820F0040020602BB9002DF8
:101BB0007DD175460CE0002B79D07546B3FBF2F071
:101BC00002FB1033CB5C05F8013D03460028F5D13C
:101BD000082A0BD12368DA0708D5236962689A427C
:101BE000DEBF302305F8013C05F1FF35C5EB0E03E0
:101BF00023612EE008681A68496910F0800F03D04D
:101C0000101D1860136808E010F0400F02F1040086
:101C10001860136801D0198000E019600023236167
:101C2000754616E01A68111D196015686268002172
:101C3000284600F04DF808B1401B6060636804E07E
:101C400004F1420584F8422001232361002384F833
:101C50004330CDF800803B4603AA21463046FFF7CB
:101C600097FE013002D14FF0FF3026E023692A466B
:101C700039463046C0470130F5D023689B0710D560
:101C8000002504F1190907E001234A463946304688
:101C9000C0470130E7D00135E368039A9B1A9D42A3
:101CA000F2DBE068039B9842B8BF184605E00B786A
:101CB00084F8423004F142058AE705B0BDE8F083BC
:101CC0008B2200089C220008000000000000000099
:101CD00001F0FF01102A2BDB10F0070F08D010F8DD
:101CE000013B013A8B422DD010F0070F42B3F6D1E1
:101CF000F0B441EA012141EA014122F007047FF0FA
:101D000000070023F0E80256083C85EA010586EA50
:101D1000010685FA47F5A3FA87F586FA47F6A5FA8C
:101D200087F68EB9EED1F0BC01F0FF0102F0070298
:101D300032B110F8013B013A83EA010313B1F8D143
:101D40000020704701387047002D06BF3546033824
:101D5000073815F0010F07D1013015F4807F02BF5D
:101D6000013015F4C03F0130F0BC0138704700BFAE
:101D700010B5431E0A44914204D011F8014B03F8F8
:101D8000014FF8E710BD884210B501EB020301D8FE
:101D9000421E0BE09842FBD28118D21AD34204D0E3
:101DA00013F8014D01F8014DF8E710BD994204D038
:101DB00011F8014B02F8014FF8E710BD38B50546A0
:101DC000002946D051F8043C0C1F002BB8BFE41882
:101DD00000F0D6F81F4A1368114613B96360146007
:101DE00032E0A3420ED92268A018834204BF1868CB
:101DF0005B68636004BF121822600C6024E0A2429A
:101E000003D813465A68002AF9D118681918A14254
:101E10000BD12168014458188242196014D110680E
:101E200052685A60014419600EE002D90C232B60FD
:101E30000AE021686018824204BF1068526862603C
:101E400004BF091821605C602846BDE8384000F0F6
:101E500098B838BD1C01002070B5CD1C25F00305D5
:101E600008350C2D38BF0C25002D064601DBA94294
:101E700002D90C23336046E000F082F8234B1C6843
:101E80001A462146A1B10B685B1B0ED40B2B03D95C
:101E90000B60CC18CD501EE08C420DBF63684B68C0
:101EA0006360136018BF0C4615E00C464968E9E70B
:101EB000174C23681BB9304600F052F820602946C1
:101EC000304600F04DF8431C18D0C41C24F0030425
:101ED000A0420DD12560304600F053F804F10B000C
:101EE000231D20F00700C31A0ED05A42E25070BDE5
:101EF000211A304600F034F80130EBD10C23336066
:101F0000304600F03EF8002070BD00BF1C010020EC
:101F100018010020F8B5074615460E4621B91146AE
:101F2000BDE8F840FFF798BF1AB9FFF747FF28460A
:101F3000F8BD00F027F885420ED929463846FFF74C
:101F40008BFF044650B131462A46FFF711FF314658
:101F50003846FFF733FF01E03046F8BD2046F8BDB4
:101F600038B5064C0023054608462360FFF79CF869
:101F7000431C02D1236803B12B6038BD240100202B
:101F80007047704751F8040C0028BEBF091851F87B
:101F9000043CC018043870472E2E2F737973746573
:101FA0006D2F7372632F73746D333266342D6861D5
:101FB0006C2F73746D3332663478785F68616C5F50
:101FC000636F727465782E63000000002E2E2F73ED
:101FD000797374656D2F7372632F73746D3332660A
:101FE000342D68616C2F73746D3332663478785F8A
:101FF00068616C5F6770696F2E630000000000000D
:102000000102030401020304060708092E2E2F73A0
:10201000797374656D2F7372632F73746D333266C9
:10202000342D68616C2F73746D3332663478785F49
:1020300068616C5F7263632E6300000061626F729F
:102040007428292C2065786974696E672E2E2E00FD
:102050002C2066756E6374696F6E3A200000000074
:10206000617373657274696F6E2022257322206616
:1020700061696C65643A2066696C6520222573226B
:102080002C206C696E65202564257325730A000079
:102090006173736572745F706172616D2829206667
:1020A00061696C65643A2066696C6520222573223B
:1020B0002C206C696E652025640A00006D61696ED4
:1020C00028617267633D25642C20617267763D5BF1
:1020D000000000002C2000002225732200000000D8
:1020E0005D293B0A00000000537461636B20667237
:1020F000616D653A0A000000205230203D20202505
:102100003038580A00000000205231203D202025A0
:102110003038580A00000000205232203D2020258F
:102120003038580A00000000205233203D2020257E
:102130003038580A0000000020523132203D20255E
:102140003038580A00000000204C52203D20202545
:102150003038580A00000000205043203D20202540
:102160003038580A0000000020505352203D2025EE
:102170003038580A000000004653522F4641523A68
:102180000A0000002043465352203D2020253038CD
:10219000580A00002048465352203D202025303860
:1021A000580A00002044465352203D202025303854
:1021B000580A00002041465352203D202025303847
:1021C000580A0000204D4D464152203D2025303810
:1021D000580A00002042464152203D202025303838
:1021E000580A00004D6973630A000000204C522F0A
:1021F0004558435F52455455524E3D20253038587E
:102200000A0000005B486172644661756C745D0A87
:10221000000000005B4275734661756C745D0A00D6
:102220005B55736167654661756C745D0A000000FB
:102230000000000000000000010203040607080976
:1022400048656C6C6F2041524D20576F726C642151
:102250000000000053797374656D20636C6F636BCD
:102260003A20257520487A0A000000005365636F04
:102270006E642025750A00004300232D302B2000BA
:10228000686C4C0065666745464700303132333430
:1022900035363738394142434445460030313233D0
:0D22A0003435363738396162636465660095
:1022B0007856341280000020000000000024F40052
:1022C000000000000000000000000000000000000E
:1022D00000000000000000000000000000000000FE
:1022E000782200080000000000000000000000004C
:1022F00000000000000000000000000000000000DE
:1023000000000000000000000000000000000000CD
:1023100000000000000000000000000000000000BD
:082320001000002032547698F1
:04000005080001C529
:00000001FF
